{
	"data": {
		"bytecode": {
			"linkReferences": {},
			"object": "608060405234801562000010575f80fd5b50604051620039a6380380620039a683398181016040528101906200003691906200032d565b336040518060400160405280601081526020017f506861726f732052574120546f6b656e000000000000000000000000000000008152506040518060400160405280600581526020017f5052574154000000000000000000000000000000000000000000000000000000815250815f9081620000b39190620005c1565b508060019081620000c59190620005c1565b5050505f73ffffffffffffffffffffffffffffffffffffffff168173ffffffffffffffffffffffffffffffffffffffff16036200013b575f6040517f1e4fbdf7000000000000000000000000000000000000000000000000000000008152600401620001329190620006b6565b60405180910390fd5b6200014c816200020560201b60201c565b505f73ffffffffffffffffffffffffffffffffffffffff168173ffffffffffffffffffffffffffffffffffffffff1603620001be576040517f08c379a0000000000000000000000000000000000000000000000000000000008152600401620001b5906200072f565b60405180910390fd5b8060095f6101000a81548173ffffffffffffffffffffffffffffffffffffffff021916908373ffffffffffffffffffffffffffffffffffffffff160217905550506200074f565b5f60075f9054906101000a900473ffffffffffffffffffffffffffffffffffffffff1690508160075f6101000a81548173ffffffffffffffffffffffffffffffffffffffff021916908373ffffffffffffffffffffffffffffffffffffffff1602179055508173ffffffffffffffffffffffffffffffffffffffff168173ffffffffffffffffffffffffffffffffffffffff167f8be0079c531659141344cd1fd0a4f28419497f9722a3daafe3b4186f6b6457e060405160405180910390a35050565b5f80fd5b5f73ffffffffffffffffffffffffffffffffffffffff82169050919050565b5f620002f782620002cc565b9050919050565b6200030981620002eb565b811462000314575f80fd5b50565b5f815190506200032781620002fe565b92915050565b5f60208284031215620003455762000344620002c8565b5b5f620003548482850162000317565b91505092915050565b5f81519050919050565b7f4e487b71000000000000000000000000000000000000000000000000000000005f52604160045260245ffd5b7f4e487b71000000000000000000000000000000000000000000000000000000005f52602260045260245ffd5b5f6002820490506001821680620003d957607f821691505b602082108103620003ef57620003ee62000394565b5b50919050565b5f819050815f5260205f209050919050565b5f6020601f8301049050919050565b5f82821b905092915050565b5f60088302620004537fffffffffffffffffffffffffffffffffffffffffffffffffffffffffffffffff8262000416565b6200045f868362000416565b95508019841693508086168417925050509392505050565b5f819050919050565b5f819050919050565b5f620004a9620004a36200049d8462000477565b62000480565b62000477565b9050919050565b5f819050919050565b620004c48362000489565b620004dc620004d382620004b0565b84845462000422565b825550505050565b5f90565b620004f2620004e4565b620004ff818484620004b9565b505050565b5b8181101562000526576200051a5f82620004e8565b60018101905062000505565b5050565b601f82111562000575576200053f81620003f5565b6200054a8462000407565b810160208510156200055a578190505b62000572620005698562000407565b83018262000504565b50505b505050565b5f82821c905092915050565b5f620005975f19846008026200057a565b1980831691505092915050565b5f620005b1838362000586565b9150826002028217905092915050565b620005cc826200035d565b67ffffffffffffffff811115620005e857620005e762000367565b5b620005f48254620003c1565b620006018282856200052a565b5f60209050601f83116001811462000637575f841562000622578287015190505b6200062e8582620005a4565b8655506200069d565b601f1984166200064786620003f5565b5f5b82811015620006705784890151825560018201915060208501945060208101905062000649565b868310156200069057848901516200068c601f89168262000586565b8355505b6001600288020188555050505b505050505050565b620006b081620002eb565b82525050565b5f602082019050620006cb5f830184620006a5565b92915050565b5f82825260208201905092915050565b7f566572696669657220616464726573732063616e6e6f74206265207a65726f005f82015250565b5f62000717601f83620006d1565b91506200072482620006e1565b602082019050919050565b5f6020820190508181035f830152620007488162000709565b9050919050565b613249806200075d5f395ff3fe608060405234801561000f575f80fd5b5060043610610140575f3560e01c806370a08231116100b6578063b88d4fde1161007a578063b88d4fde1461035c578063c87b56dd14610378578063cf35bdd0146103a8578063e5bb219b146103dc578063e985e9c5146103f8578063f2fde38b1461042857610140565b806370a08231146102ca578063715018a6146102fa5780638da5cb5b1461030457806395d89b4114610322578063a22cb4651461034057610140565b806323b872dd1161010857806323b872dd146101fa57806342842e0e146102165780635437988d1461023257806359fd285c1461024e5780636352211e1461026a5780636fb748d71461029a57610140565b806301ffc9a71461014457806306fdde0314610174578063081812fc14610192578063095ea7b3146101c25780631c38bd69146101de575b5f80fd5b61015e600480360381019061015991906122eb565b610444565b60405161016b9190612330565b60405180910390f35b61017c6104a4565b60405161018991906123d3565b60405180910390f35b6101ac60048036038101906101a79190612426565b610533565b6040516101b99190612490565b60405180910390f35b6101dc60048036038101906101d791906124d3565b61054e565b005b6101f860048036038101906101f39190612511565b610564565b005b610214600480360381019061020f919061254f565b610637565b005b610230600480360381019061022b919061254f565b610736565b005b61024c6004803603810190610247919061259f565b610755565b005b61026860048036038101906102639190612426565b61080e565b005b610284600480360381019061027f9190612426565b610a03565b6040516102919190612490565b60405180910390f35b6102b460048036038101906102af91906126f6565b610a14565b6040516102c191906127d0565b60405180910390f35b6102e460048036038101906102df919061259f565b610bd2565b6040516102f191906127d0565b60405180910390f35b610302610c88565b005b61030c610c9b565b6040516103199190612490565b60405180910390f35b61032a610cc3565b60405161033791906123d3565b60405180910390f35b61035a60048036038101906103559190612813565b610d53565b005b610376600480360381019061037191906128ef565b610d69565b005b610392600480360381019061038d9190612426565b610d86565b60405161039f91906123d3565b60405180910390f35b6103c260048036038101906103bd9190612426565b610e91565b6040516103d39594939291906129e2565b60405180910390f35b6103f660048036038101906103f19190612426565b610fdb565b005b610412600480360381019061040d9190612a41565b61114a565b60405161041f9190612330565b60405180910390f35b610442600480360381019061043d919061259f565b6111d8565b005b5f634906490660e01b7bffffffffffffffffffffffffffffffffffffffffffffffffffffffff1916827bffffffffffffffffffffffffffffffffffffffffffffffffffffffff1916148061049d575061049c8261125c565b5b9050919050565b60605f80546104b290612aac565b80601f01602080910402602001604051908101604052809291908181526020018280546104de90612aac565b80156105295780601f1061050057610100808354040283529160200191610529565b820191905f5260205f20905b81548152906001019060200180831161050c57829003601f168201915b5050505050905090565b5f61053d8261133d565b50610547826113c3565b9050919050565b610560828261055b6113fc565b611403565b5050565b61056c611415565b5f73ffffffffffffffffffffffffffffffffffffffff1661058c83610a03565b73ffffffffffffffffffffffffffffffffffffffff16036105e2576040517f08c379a00000000000000000000000000000000000000000000000000000000081526004016105d990612b26565b60405180910390fd5b80600a5f8481526020019081526020015f2060010181905550817f638a997da804e89019b7a396f82dd2d059786cfa6cec3a8e1425c467b5ac5ee58260405161062b91906127d0565b60405180910390a25050565b5f73ffffffffffffffffffffffffffffffffffffffff168273ffffffffffffffffffffffffffffffffffffffff16036106a7575f6040517f64a0ae9200000000000000000000000000000000000000000000000000000000815260040161069e9190612490565b60405180910390fd5b5f6106ba83836106b56113fc565b61149c565b90508373ffffffffffffffffffffffffffffffffffffffff168173ffffffffffffffffffffffffffffffffffffffff1614610730578382826040517f64283d7b00000000000000000000000000000000000000000000000000000000815260040161072793929190612b44565b60405180910390fd5b50505050565b61075083838360405180602001604052805f815250610d69565b505050565b61075d611415565b5f73ffffffffffffffffffffffffffffffffffffffff168173ffffffffffffffffffffffffffffffffffffffff16036107cb576040517f08c379a00000000000000000000000000000000000000000000000000000000081526004016107c290612bc3565b60405180910390fd5b8060095f6101000a81548173ffffffffffffffffffffffffffffffffffffffff021916908373ffffffffffffffffffffffffffffffffffffffff16021790555050565b60095f9054906101000a900473ffffffffffffffffffffffffffffffffffffffff1673ffffffffffffffffffffffffffffffffffffffff163373ffffffffffffffffffffffffffffffffffffffff161461089d576040517f08c379a000000000000000000000000000000000000000000000000000000000815260040161089490612c2b565b60405180910390fd5b5f73ffffffffffffffffffffffffffffffffffffffff166108bd82610a03565b73ffffffffffffffffffffffffffffffffffffffff1603610913576040517f08c379a000000000000000000000000000000000000000000000000000000000815260040161090a90612b26565b60405180910390fd5b5f600a5f8381526020019081526020015f2090505f600281111561093a5761093961296f565b5b816003015f9054906101000a900460ff16600281111561095d5761095c61296f565b5b1461099d576040517f08c379a000000000000000000000000000000000000000000000000000000000815260040161099490612cb9565b60405180910390fd5b6001816003015f6101000a81548160ff021916908360028111156109c4576109c361296f565b5b0217905550428160040181905550817f7115fa7500082019331bb00caaa9cc745ac6d0414c2af51872c3b69493c9942c60405160405180910390a25050565b5f610a0d8261133d565b9050919050565b5f610a1d611415565b5f73ffffffffffffffffffffffffffffffffffffffff168673ffffffffffffffffffffffffffffffffffffffff1603610a8b576040517f08c379a0000000000000000000000000000000000000000000000000000000008152600401610a8290612d21565b60405180910390fd5b5f600854905060085f815480929190610aa390612d6c565b91905055506040518060a001604052808681526020018581526020018481526020015f6002811115610ad857610ad761296f565b5b815260200142815250600a5f8381526020019081526020015f205f820151815f019081610b059190612f50565b50602082015181600101556040820151816002019081610b259190612f50565b506060820151816003015f6101000a81548160ff02191690836002811115610b5057610b4f61296f565b5b021790555060808201518160040155905050610b6c87826116a7565b610b7681876116c4565b8673ffffffffffffffffffffffffffffffffffffffff16817f522902797ecf25adb7fe6834ed0d749090896244923f1c3e0b7ca938687ea08f87604051610bbd91906123d3565b60405180910390a38091505095945050505050565b5f8073ffffffffffffffffffffffffffffffffffffffff168273ffffffffffffffffffffffffffffffffffffffff1603610c43575f6040517f89c62b64000000000000000000000000000000000000000000000000000000008152600401610c3a9190612490565b60405180910390fd5b60035f8373ffffffffffffffffffffffffffffffffffffffff1673ffffffffffffffffffffffffffffffffffffffff1681526020019081526020015f20549050919050565b610c90611415565b610c995f61171e565b565b5f60075f9054906101000a900473ffffffffffffffffffffffffffffffffffffffff16905090565b606060018054610cd290612aac565b80601f0160208091040260200160405190810160405280929190818152602001828054610cfe90612aac565b8015610d495780601f10610d2057610100808354040283529160200191610d49565b820191905f5260205f20905b815481529060010190602001808311610d2c57829003601f168201915b5050505050905090565b610d65610d5e6113fc565b83836117e1565b5050565b610d74848484610637565b610d808484848461194a565b50505050565b6060610d918261133d565b505f60065f8481526020019081526020015f208054610daf90612aac565b80601f0160208091040260200160405190810160405280929190818152602001828054610ddb90612aac565b8015610e265780601f10610dfd57610100808354040283529160200191610e26565b820191905f5260205f20905b815481529060010190602001808311610e0957829003601f168201915b505050505090505f610e36611afc565b90505f815103610e4a578192505050610e8c565b5f82511115610e7e578082604051602001610e66929190613059565b60405160208183030381529060405292505050610e8c565b610e8784611b12565b925050505b919050565b600a602052805f5260405f205f91509050805f018054610eb090612aac565b80601f0160208091040260200160405190810160405280929190818152602001828054610edc90612aac565b8015610f275780601f10610efe57610100808354040283529160200191610f27565b820191905f5260205f20905b815481529060010190602001808311610f0a57829003601f168201915b505050505090806001015490806002018054610f4290612aac565b80601f0160208091040260200160405190810160405280929190818152602001828054610f6e90612aac565b8015610fb95780601f10610f9057610100808354040283529160200191610fb9565b820191905f5260205f20905b815481529060010190602001808311610f9c57829003601f168201915b505050505090806003015f9054906101000a900460ff16908060040154905085565b610fe3611415565b5f73ffffffffffffffffffffffffffffffffffffffff1661100382610a03565b73ffffffffffffffffffffffffffffffffffffffff1603611059576040517f08c379a000000000000000000000000000000000000000000000000000000000815260040161105090612b26565b60405180910390fd5b5f600a5f8381526020019081526020015f209050600160028111156110815761108061296f565b5b816003015f9054906101000a900460ff1660028111156110a4576110a361296f565b5b146110e4576040517f08c379a00000000000000000000000000000000000000000000000000000000081526004016110db906130c6565b60405180910390fd5b6002816003015f6101000a81548160ff0219169083600281111561110b5761110a61296f565b5b0217905550428160040181905550817f0319131f003ed5aa314447d2acf1fd60d6f698bb73f9e9a19e77de492d51389560405160405180910390a25050565b5f60055f8473ffffffffffffffffffffffffffffffffffffffff1673ffffffffffffffffffffffffffffffffffffffff1681526020019081526020015f205f8373ffffffffffffffffffffffffffffffffffffffff1673ffffffffffffffffffffffffffffffffffffffff1681526020019081526020015f205f9054906101000a900460ff16905092915050565b6111e0611415565b5f73ffffffffffffffffffffffffffffffffffffffff168173ffffffffffffffffffffffffffffffffffffffff1603611250575f6040517f1e4fbdf70000000000000000000000000000000000000000000000000000000081526004016112479190612490565b60405180910390fd5b6112598161171e565b50565b5f7f80ac58cd000000000000000000000000000000000000000000000000000000007bffffffffffffffffffffffffffffffffffffffffffffffffffffffff1916827bffffffffffffffffffffffffffffffffffffffffffffffffffffffff1916148061132657507f5b5e139f000000000000000000000000000000000000000000000000000000007bffffffffffffffffffffffffffffffffffffffffffffffffffffffff1916827bffffffffffffffffffffffffffffffffffffffffffffffffffffffff1916145b80611336575061133582611b78565b5b9050919050565b5f8061134883611be1565b90505f73ffffffffffffffffffffffffffffffffffffffff168173ffffffffffffffffffffffffffffffffffffffff16036113ba57826040517f7e2732890000000000000000000000000000000000000000000000000000000081526004016113b191906127d0565b60405180910390fd5b80915050919050565b5f60045f8381526020019081526020015f205f9054906101000a900473ffffffffffffffffffffffffffffffffffffffff169050919050565b5f33905090565b6114108383836001611c1a565b505050565b61141d6113fc565b73ffffffffffffffffffffffffffffffffffffffff1661143b610c9b565b73ffffffffffffffffffffffffffffffffffffffff161461149a5761145e6113fc565b6040517f118cdaa70000000000000000000000000000000000000000000000000000000081526004016114919190612490565b60405180910390fd5b565b5f806114a784611be1565b90505f73ffffffffffffffffffffffffffffffffffffffff168373ffffffffffffffffffffffffffffffffffffffff16146114e8576114e7818486611dd9565b5b5f73ffffffffffffffffffffffffffffffffffffffff168173ffffffffffffffffffffffffffffffffffffffff1614611573576115275f855f80611c1a565b600160035f8373ffffffffffffffffffffffffffffffffffffffff1673ffffffffffffffffffffffffffffffffffffffff1681526020019081526020015f205f82825403925050819055505b5f73ffffffffffffffffffffffffffffffffffffffff168573ffffffffffffffffffffffffffffffffffffffff16146115f257600160035f8773ffffffffffffffffffffffffffffffffffffffff1673ffffffffffffffffffffffffffffffffffffffff1681526020019081526020015f205f82825401925050819055505b8460025f8681526020019081526020015f205f6101000a81548173ffffffffffffffffffffffffffffffffffffffff021916908373ffffffffffffffffffffffffffffffffffffffff160217905550838573ffffffffffffffffffffffffffffffffffffffff168273ffffffffffffffffffffffffffffffffffffffff167fddf252ad1be2c89b69c2b068fc378daa952ba7f163c4a11628f55a4df523b3ef60405160405180910390a4809150509392505050565b6116c0828260405180602001604052805f815250611e9c565b5050565b8060065f8481526020019081526020015f2090816116e29190612f50565b507ff8e1a15aba9398e019f0b49df1a4fde98ee17ae345cb5f6b5e2c27f5033e8ce78260405161171291906127d0565b60405180910390a15050565b5f60075f9054906101000a900473ffffffffffffffffffffffffffffffffffffffff1690508160075f6101000a81548173ffffffffffffffffffffffffffffffffffffffff021916908373ffffffffffffffffffffffffffffffffffffffff1602179055508173ffffffffffffffffffffffffffffffffffffffff168173ffffffffffffffffffffffffffffffffffffffff167f8be0079c531659141344cd1fd0a4f28419497f9722a3daafe3b4186f6b6457e060405160405180910390a35050565b5f73ffffffffffffffffffffffffffffffffffffffff168273ffffffffffffffffffffffffffffffffffffffff160361185157816040517f5b08ba180000000000000000000000000000000000000000000000000000000081526004016118489190612490565b60405180910390fd5b8060055f8573ffffffffffffffffffffffffffffffffffffffff1673ffffffffffffffffffffffffffffffffffffffff1681526020019081526020015f205f8473ffffffffffffffffffffffffffffffffffffffff1673ffffffffffffffffffffffffffffffffffffffff1681526020019081526020015f205f6101000a81548160ff0219169083151502179055508173ffffffffffffffffffffffffffffffffffffffff168373ffffffffffffffffffffffffffffffffffffffff167f17307eab39ab6107e8899845ad3d59bd9653f200f220920489ca2b5937696c318360405161193d9190612330565b60405180910390a3505050565b5f8373ffffffffffffffffffffffffffffffffffffffff163b1115611af6578273ffffffffffffffffffffffffffffffffffffffff1663150b7a0261198d6113fc565b8685856040518563ffffffff1660e01b81526004016119af9493929190613136565b6020604051808303815f875af19250505080156119ea57506040513d601f19601f820116820180604052508101906119e79190613194565b60015b611a6b573d805f8114611a18576040519150601f19603f3d011682016040523d82523d5f602084013e611a1d565b606091505b505f815103611a6357836040517f64a0ae92000000000000000000000000000000000000000000000000000000008152600401611a5a9190612490565b60405180910390fd5b805181602001fd5b63150b7a0260e01b7bffffffffffffffffffffffffffffffffffffffffffffffffffffffff1916817bffffffffffffffffffffffffffffffffffffffffffffffffffffffff191614611af457836040517f64a0ae92000000000000000000000000000000000000000000000000000000008152600401611aeb9190612490565b60405180910390fd5b505b50505050565b606060405180602001604052805f815250905090565b6060611b1d8261133d565b505f611b27611afc565b90505f815111611b455760405180602001604052805f815250611b70565b80611b4f84611eb7565b604051602001611b60929190613059565b6040516020818303038152906040525b915050919050565b5f7f01ffc9a7000000000000000000000000000000000000000000000000000000007bffffffffffffffffffffffffffffffffffffffffffffffffffffffff1916827bffffffffffffffffffffffffffffffffffffffffffffffffffffffff1916149050919050565b5f60025f8381526020019081526020015f205f9054906101000a900473ffffffffffffffffffffffffffffffffffffffff169050919050565b8080611c5257505f73ffffffffffffffffffffffffffffffffffffffff168273ffffffffffffffffffffffffffffffffffffffff1614155b15611d84575f611c618461133d565b90505f73ffffffffffffffffffffffffffffffffffffffff168373ffffffffffffffffffffffffffffffffffffffff1614158015611ccb57508273ffffffffffffffffffffffffffffffffffffffff168173ffffffffffffffffffffffffffffffffffffffff1614155b8015611cde5750611cdc818461114a565b155b15611d2057826040517fa9fbf51f000000000000000000000000000000000000000000000000000000008152600401611d179190612490565b60405180910390fd5b8115611d8257838573ffffffffffffffffffffffffffffffffffffffff168273ffffffffffffffffffffffffffffffffffffffff167f8c5be1e5ebec7d5bd14f71427d1e84f3dd0314c0f7b2291e5b200ac8c7c3b92560405160405180910390a45b505b8360045f8581526020019081526020015f205f6101000a81548173ffffffffffffffffffffffffffffffffffffffff021916908373ffffffffffffffffffffffffffffffffffffffff16021790555050505050565b611de4838383611f81565b611e97575f73ffffffffffffffffffffffffffffffffffffffff168373ffffffffffffffffffffffffffffffffffffffff1603611e5857806040517f7e273289000000000000000000000000000000000000000000000000000000008152600401611e4f91906127d0565b60405180910390fd5b81816040517f177e802f000000000000000000000000000000000000000000000000000000008152600401611e8e9291906131bf565b60405180910390fd5b505050565b611ea68383612041565b611eb25f84848461194a565b505050565b60605f6001611ec584612134565b0190505f8167ffffffffffffffff811115611ee357611ee26125d2565b5b6040519080825280601f01601f191660200182016040528015611f155781602001600182028036833780820191505090505b5090505f82602001820190505b600115611f76578080600190039150507f3031323334353637383961626364656600000000000000000000000000000000600a86061a8153600a8581611f6b57611f6a6131e6565b5b0494505f8503611f22575b819350505050919050565b5f8073ffffffffffffffffffffffffffffffffffffffff168373ffffffffffffffffffffffffffffffffffffffff161415801561203857508273ffffffffffffffffffffffffffffffffffffffff168473ffffffffffffffffffffffffffffffffffffffff161480611ff95750611ff8848461114a565b5b8061203757508273ffffffffffffffffffffffffffffffffffffffff1661201f836113c3565b73ffffffffffffffffffffffffffffffffffffffff16145b5b90509392505050565b5f73ffffffffffffffffffffffffffffffffffffffff168273ffffffffffffffffffffffffffffffffffffffff16036120b1575f6040517f64a0ae920000000000000000000000000000000000000000000000000000000081526004016120a89190612490565b60405180910390fd5b5f6120bd83835f61149c565b90505f73ffffffffffffffffffffffffffffffffffffffff168173ffffffffffffffffffffffffffffffffffffffff161461212f575f6040517f73c6ac6e0000000000000000000000000000000000000000000000000000000081526004016121269190612490565b60405180910390fd5b505050565b5f805f90507a184f03e93ff9f4daa797ed6e38ed64bf6a1f0100000000000000008310612190577a184f03e93ff9f4daa797ed6e38ed64bf6a1f0100000000000000008381612186576121856131e6565b5b0492506040810190505b6d04ee2d6d415b85acef810000000083106121cd576d04ee2d6d415b85acef810000000083816121c3576121c26131e6565b5b0492506020810190505b662386f26fc1000083106121fc57662386f26fc1000083816121f2576121f16131e6565b5b0492506010810190505b6305f5e1008310612225576305f5e100838161221b5761221a6131e6565b5b0492506008810190505b612710831061224a5761271083816122405761223f6131e6565b5b0492506004810190505b6064831061226d5760648381612263576122626131e6565b5b0492506002810190505b600a831061227c576001810190505b80915050919050565b5f604051905090565b5f80fd5b5f80fd5b5f7fffffffff0000000000000000000000000000000000000000000000000000000082169050919050565b6122ca81612296565b81146122d4575f80fd5b50565b5f813590506122e5816122c1565b92915050565b5f60208284031215612300576122ff61228e565b5b5f61230d848285016122d7565b91505092915050565b5f8115159050919050565b61232a81612316565b82525050565b5f6020820190506123435f830184612321565b92915050565b5f81519050919050565b5f82825260208201905092915050565b5f5b83811015612380578082015181840152602081019050612365565b5f8484015250505050565b5f601f19601f8301169050919050565b5f6123a582612349565b6123af8185612353565b93506123bf818560208601612363565b6123c88161238b565b840191505092915050565b5f6020820190508181035f8301526123eb818461239b565b905092915050565b5f819050919050565b612405816123f3565b811461240f575f80fd5b50565b5f81359050612420816123fc565b92915050565b5f6020828403121561243b5761243a61228e565b5b5f61244884828501612412565b91505092915050565b5f73ffffffffffffffffffffffffffffffffffffffff82169050919050565b5f61247a82612451565b9050919050565b61248a81612470565b82525050565b5f6020820190506124a35f830184612481565b92915050565b6124b281612470565b81146124bc575f80fd5b50565b5f813590506124cd816124a9565b92915050565b5f80604083850312156124e9576124e861228e565b5b5f6124f6858286016124bf565b925050602061250785828601612412565b9150509250929050565b5f80604083850312156125275761252661228e565b5b5f61253485828601612412565b925050602061254585828601612412565b9150509250929050565b5f805f606084860312156125665761256561228e565b5b5f612573868287016124bf565b9350506020612584868287016124bf565b925050604061259586828701612412565b9150509250925092565b5f602082840312156125b4576125b361228e565b5b5f6125c1848285016124bf565b91505092915050565b5f80fd5b5f80fd5b7f4e487b71000000000000000000000000000000000000000000000000000000005f52604160045260245ffd5b6126088261238b565b810181811067ffffffffffffffff82111715612627576126266125d2565b5b80604052505050565b5f612639612285565b905061264582826125ff565b919050565b5f67ffffffffffffffff821115612664576126636125d2565b5b61266d8261238b565b9050602081019050919050565b828183375f83830152505050565b5f61269a6126958461264a565b612630565b9050828152602081018484840111156126b6576126b56125ce565b5b6126c184828561267a565b509392505050565b5f82601f8301126126dd576126dc6125ca565b5b81356126ed848260208601612688565b91505092915050565b5f805f805f60a0868803121561270f5761270e61228e565b5b5f61271c888289016124bf565b955050602086013567ffffffffffffffff81111561273d5761273c612292565b5b612749888289016126c9565b945050604086013567ffffffffffffffff81111561276a57612769612292565b5b612776888289016126c9565b935050606061278788828901612412565b925050608086013567ffffffffffffffff8111156127a8576127a7612292565b5b6127b4888289016126c9565b9150509295509295909350565b6127ca816123f3565b82525050565b5f6020820190506127e35f8301846127c1565b92915050565b6127f281612316565b81146127fc575f80fd5b50565b5f8135905061280d816127e9565b92915050565b5f80604083850312156128295761282861228e565b5b5f612836858286016124bf565b9250506020612847858286016127ff565b9150509250929050565b5f67ffffffffffffffff82111561286b5761286a6125d2565b5b6128748261238b565b9050602081019050919050565b5f61289361288e84612851565b612630565b9050828152602081018484840111156128af576128ae6125ce565b5b6128ba84828561267a565b509392505050565b5f82601f8301126128d6576128d56125ca565b5b81356128e6848260208601612881565b91505092915050565b5f805f80608085870312156129075761290661228e565b5b5f612914878288016124bf565b9450506020612925878288016124bf565b935050604061293687828801612412565b925050606085013567ffffffffffffffff81111561295757612956612292565b5b612963878288016128c2565b91505092959194509250565b7f4e487b71000000000000000000000000000000000000000000000000000000005f52602160045260245ffd5b600381106129ad576129ac61296f565b5b50565b5f8190506129bd8261299c565b919050565b5f6129cc826129b0565b9050919050565b6129dc816129c2565b82525050565b5f60a0820190508181035f8301526129fa818861239b565b9050612a0960208301876127c1565b8181036040830152612a1b818661239b565b9050612a2a60608301856129d3565b612a3760808301846127c1565b9695505050505050565b5f8060408385031215612a5757612a5661228e565b5b5f612a64858286016124bf565b9250506020612a75858286016124bf565b9150509250929050565b7f4e487b71000000000000000000000000000000000000000000000000000000005f52602260045260245ffd5b5f6002820490506001821680612ac357607f821691505b602082108103612ad657612ad5612a7f565b5b50919050565b7f546f6b656e20646f6573206e6f742065786973740000000000000000000000005f82015250565b5f612b10601483612353565b9150612b1b82612adc565b602082019050919050565b5f6020820190508181035f830152612b3d81612b04565b9050919050565b5f606082019050612b575f830186612481565b612b6460208301856127c1565b612b716040830184612481565b949350505050565b7f566572696669657220616464726573732063616e6e6f74206265207a65726f005f82015250565b5f612bad601f83612353565b9150612bb882612b79565b602082019050919050565b5f6020820190508181035f830152612bda81612ba1565b9050919050565b7f43616c6c6572206973206e6f74207468652076657269666965720000000000005f82015250565b5f612c15601a83612353565b9150612c2082612be1565b602082019050919050565b5f6020820190508181035f830152612c4281612c09565b9050919050565b7f4173736574206973206e6f742070656e64696e6720766572696669636174696f5f8201527f6e00000000000000000000000000000000000000000000000000000000000000602082015250565b5f612ca3602183612353565b9150612cae82612c49565b604082019050919050565b5f6020820190508181035f830152612cd081612c97565b9050919050565b7f4f776e657220616464726573732063616e6e6f74206265207a65726f000000005f82015250565b5f612d0b601c83612353565b9150612d1682612cd7565b602082019050919050565b5f6020820190508181035f830152612d3881612cff565b9050919050565b7f4e487b71000000000000000000000000000000000000000000000000000000005f52601160045260245ffd5b5f612d76826123f3565b91507fffffffffffffffffffffffffffffffffffffffffffffffffffffffffffffffff8203612da857612da7612d3f565b5b600182019050919050565b5f819050815f5260205f209050919050565b5f6020601f8301049050919050565b5f82821b905092915050565b5f60088302612e0f7fffffffffffffffffffffffffffffffffffffffffffffffffffffffffffffffff82612dd4565b612e198683612dd4565b95508019841693508086168417925050509392505050565b5f819050919050565b5f612e54612e4f612e4a846123f3565b612e31565b6123f3565b9050919050565b5f819050919050565b612e6d83612e3a565b612e81612e7982612e5b565b848454612de0565b825550505050565b5f90565b612e95612e89565b612ea0818484612e64565b505050565b5b81811015612ec357612eb85f82612e8d565b600181019050612ea6565b5050565b601f821115612f0857612ed981612db3565b612ee284612dc5565b81016020851015612ef1578190505b612f05612efd85612dc5565b830182612ea5565b50505b505050565b5f82821c905092915050565b5f612f285f1984600802612f0d565b1980831691505092915050565b5f612f408383612f19565b9150826002028217905092915050565b612f5982612349565b67ffffffffffffffff811115612f7257612f716125d2565b5b612f7c8254612aac565b612f87828285612ec7565b5f60209050601f831160018114612fb8575f8415612fa6578287015190505b612fb08582612f35565b865550613017565b601f198416612fc686612db3565b5f5b82811015612fed57848901518255600182019150602085019450602081019050612fc8565b8683101561300a5784890151613006601f891682612f19565b8355505b6001600288020188555050505b505050505050565b5f81905092915050565b5f61303382612349565b61303d818561301f565b935061304d818560208601612363565b80840191505092915050565b5f6130648285613029565b91506130708284613029565b91508190509392505050565b7f4173736574206973206e6f7420616374697665000000000000000000000000005f82015250565b5f6130b0601383612353565b91506130bb8261307c565b602082019050919050565b5f6020820190508181035f8301526130dd816130a4565b9050919050565b5f81519050919050565b5f82825260208201905092915050565b5f613108826130e4565b61311281856130ee565b9350613122818560208601612363565b61312b8161238b565b840191505092915050565b5f6080820190506131495f830187612481565b6131566020830186612481565b61316360408301856127c1565b818103606083015261317581846130fe565b905095945050505050565b5f8151905061318e816122c1565b92915050565b5f602082840312156131a9576131a861228e565b5b5f6131b684828501613180565b91505092915050565b5f6040820190506131d25f830185612481565b6131df60208301846127c1565b9392505050565b7f4e487b71000000000000000000000000000000000000000000000000000000005f52601260045260245ffdfea2646970667358221220d853291c76aa247ca87e71ef4cbe167e9148432cecba61f6f66d7515fb1c4e3064736f6c63430008140033",
			"opcodes": "PUSH1 0x80 PUSH1 0x40 MSTORE CALLVALUE DUP1 ISZERO PUSH3 0x10 JUMPI PUSH0 DUP1 REVERT JUMPDEST POP PUSH1 0x40 MLOAD PUSH3 0x39A6 CODESIZE SUB DUP1 PUSH3 0x39A6 DUP4 CODECOPY DUP2 DUP2 ADD PUSH1 0x40 MSTORE DUP2 ADD SWAP1 PUSH3 0x36 SWAP2 SWAP1 PUSH3 0x32D JUMP JUMPDEST CALLER PUSH1 0x40 MLOAD DUP1 PUSH1 0x40 ADD PUSH1 0x40 MSTORE DUP1 PUSH1 0x10 DUP2 MSTORE PUSH1 0x20 ADD PUSH32 0x506861726F732052574120546F6B656E00000000000000000000000000000000 DUP2 MSTORE POP PUSH1 0x40 MLOAD DUP1 PUSH1 0x40 ADD PUSH1 0x40 MSTORE DUP1 PUSH1 0x5 DUP2 MSTORE PUSH1 0x20 ADD PUSH32 0x5052574154000000000000000000000000000000000000000000000000000000 DUP2 MSTORE POP DUP2 PUSH0 SWAP1 DUP2 PUSH3 0xB3 SWAP2 SWAP1 PUSH3 0x5C1 JUMP JUMPDEST POP DUP1 PUSH1 0x1 SWAP1 DUP2 PUSH3 0xC5 SWAP2 SWAP1 PUSH3 0x5C1 JUMP JUMPDEST POP POP POP PUSH0 PUSH20 0xFFFFFFFFFFFFFFFFFFFFFFFFFFFFFFFFFFFFFFFF AND DUP2 PUSH20 0xFFFFFFFFFFFFFFFFFFFFFFFFFFFFFFFFFFFFFFFF AND SUB PUSH3 0x13B JUMPI PUSH0 PUSH1 0x40 MLOAD PUSH32 0x1E4FBDF700000000000000000000000000000000000000000000000000000000 DUP2 MSTORE PUSH1 0x4 ADD PUSH3 0x132 SWAP2 SWAP1 PUSH3 0x6B6 JUMP JUMPDEST PUSH1 0x40 MLOAD DUP1 SWAP2 SUB SWAP1 REVERT JUMPDEST PUSH3 0x14C DUP2 PUSH3 0x205 PUSH1 0x20 SHL PUSH1 0x20 SHR JUMP JUMPDEST POP PUSH0 PUSH20 0xFFFFFFFFFFFFFFFFFFFFFFFFFFFFFFFFFFFFFFFF AND DUP2 PUSH20 0xFFFFFFFFFFFFFFFFFFFFFFFFFFFFFFFFFFFFFFFF AND SUB PUSH3 0x1BE JUMPI PUSH1 0x40 MLOAD PUSH32 0x8C379A000000000000000000000000000000000000000000000000000000000 DUP2 MSTORE PUSH1 0x4 ADD PUSH3 0x1B5 SWAP1 PUSH3 0x72F JUMP JUMPDEST PUSH1 0x40 MLOAD DUP1 SWAP2 SUB SWAP1 REVERT JUMPDEST DUP1 PUSH1 0x9 PUSH0 PUSH2 0x100 EXP DUP2 SLOAD DUP2 PUSH20 0xFFFFFFFFFFFFFFFFFFFFFFFFFFFFFFFFFFFFFFFF MUL NOT AND SWAP1 DUP4 PUSH20 0xFFFFFFFFFFFFFFFFFFFFFFFFFFFFFFFFFFFFFFFF AND MUL OR SWAP1 SSTORE POP POP PUSH3 0x74F JUMP JUMPDEST PUSH0 PUSH1 0x7 PUSH0 SWAP1 SLOAD SWAP1 PUSH2 0x100 EXP SWAP1 DIV PUSH20 0xFFFFFFFFFFFFFFFFFFFFFFFFFFFFFFFFFFFFFFFF AND SWAP1 POP DUP2 PUSH1 0x7 PUSH0 PUSH2 0x100 EXP DUP2 SLOAD DUP2 PUSH20 0xFFFFFFFFFFFFFFFFFFFFFFFFFFFFFFFFFFFFFFFF MUL NOT AND SWAP1 DUP4 PUSH20 0xFFFFFFFFFFFFFFFFFFFFFFFFFFFFFFFFFFFFFFFF AND MUL OR SWAP1 SSTORE POP DUP2 PUSH20 0xFFFFFFFFFFFFFFFFFFFFFFFFFFFFFFFFFFFFFFFF AND DUP2 PUSH20 0xFFFFFFFFFFFFFFFFFFFFFFFFFFFFFFFFFFFFFFFF AND PUSH32 0x8BE0079C531659141344CD1FD0A4F28419497F9722A3DAAFE3B4186F6B6457E0 PUSH1 0x40 MLOAD PUSH1 0x40 MLOAD DUP1 SWAP2 SUB SWAP1 LOG3 POP POP JUMP JUMPDEST PUSH0 DUP1 REVERT JUMPDEST PUSH0 PUSH20 0xFFFFFFFFFFFFFFFFFFFFFFFFFFFFFFFFFFFFFFFF DUP3 AND SWAP1 POP SWAP2 SWAP1 POP JUMP JUMPDEST PUSH0 PUSH3 0x2F7 DUP3 PUSH3 0x2CC JUMP JUMPDEST SWAP1 POP SWAP2 SWAP1 POP JUMP JUMPDEST PUSH3 0x309 DUP2 PUSH3 0x2EB JUMP JUMPDEST DUP2 EQ PUSH3 0x314 JUMPI PUSH0 DUP1 REVERT JUMPDEST POP JUMP JUMPDEST PUSH0 DUP2 MLOAD SWAP1 POP PUSH3 0x327 DUP2 PUSH3 0x2FE JUMP JUMPDEST SWAP3 SWAP2 POP POP JUMP JUMPDEST PUSH0 PUSH1 0x20 DUP3 DUP5 SUB SLT ISZERO PUSH3 0x345 JUMPI PUSH3 0x344 PUSH3 0x2C8 JUMP JUMPDEST JUMPDEST PUSH0 PUSH3 0x354 DUP5 DUP3 DUP6 ADD PUSH3 0x317 JUMP JUMPDEST SWAP2 POP POP SWAP3 SWAP2 POP POP JUMP JUMPDEST PUSH0 DUP2 MLOAD SWAP1 POP SWAP2 SWAP1 POP JUMP JUMPDEST PUSH32 0x4E487B7100000000000000000000000000000000000000000000000000000000 PUSH0 MSTORE PUSH1 0x41 PUSH1 0x4 MSTORE PUSH1 0x24 PUSH0 REVERT JUMPDEST PUSH32 0x4E487B7100000000000000000000000000000000000000000000000000000000 PUSH0 MSTORE PUSH1 0x22 PUSH1 0x4 MSTORE PUSH1 0x24 PUSH0 REVERT JUMPDEST PUSH0 PUSH1 0x2 DUP3 DIV SWAP1 POP PUSH1 0x1 DUP3 AND DUP1 PUSH3 0x3D9 JUMPI PUSH1 0x7F DUP3 AND SWAP2 POP JUMPDEST PUSH1 0x20 DUP3 LT DUP2 SUB PUSH3 0x3EF JUMPI PUSH3 0x3EE PUSH3 0x394 JUMP JUMPDEST JUMPDEST POP SWAP2 SWAP1 POP JUMP JUMPDEST PUSH0 DUP2 SWAP1 POP DUP2 PUSH0 MSTORE PUSH1 0x20 PUSH0 KECCAK256 SWAP1 POP SWAP2 SWAP1 POP JUMP JUMPDEST PUSH0 PUSH1 0x20 PUSH1 0x1F DUP4 ADD DIV SWAP1 POP SWAP2 SWAP1 POP JUMP JUMPDEST PUSH0 DUP3 DUP3 SHL SWAP1 POP SWAP3 SWAP2 POP POP JUMP JUMPDEST PUSH0 PUSH1 0x8 DUP4 MUL PUSH3 0x453 PUSH32 0xFFFFFFFFFFFFFFFFFFFFFFFFFFFFFFFFFFFFFFFFFFFFFFFFFFFFFFFFFFFFFFFF DUP3 PUSH3 0x416 JUMP JUMPDEST PUSH3 0x45F DUP7 DUP4 PUSH3 0x416 JUMP JUMPDEST SWAP6 POP DUP1 NOT DUP5 AND SWAP4 POP DUP1 DUP7 AND DUP5 OR SWAP3 POP POP POP SWAP4 SWAP3 POP POP POP JUMP JUMPDEST PUSH0 DUP2 SWAP1 POP SWAP2 SWAP1 POP JUMP JUMPDEST PUSH0 DUP2 SWAP1 POP SWAP2 SWAP1 POP JUMP JUMPDEST PUSH0 PUSH3 0x4A9 PUSH3 0x4A3 PUSH3 0x49D DUP5 PUSH3 0x477 JUMP JUMPDEST PUSH3 0x480 JUMP JUMPDEST PUSH3 0x477 JUMP JUMPDEST SWAP1 POP SWAP2 SWAP1 POP JUMP JUMPDEST PUSH0 DUP2 SWAP1 POP SWAP2 SWAP1 POP JUMP JUMPDEST PUSH3 0x4C4 DUP4 PUSH3 0x489 JUMP JUMPDEST PUSH3 0x4DC PUSH3 0x4D3 DUP3 PUSH3 0x4B0 JUMP JUMPDEST DUP5 DUP5 SLOAD PUSH3 0x422 JUMP JUMPDEST DUP3 SSTORE POP POP POP POP JUMP JUMPDEST PUSH0 SWAP1 JUMP JUMPDEST PUSH3 0x4F2 PUSH3 0x4E4 JUMP JUMPDEST PUSH3 0x4FF DUP2 DUP5 DUP5 PUSH3 0x4B9 JUMP JUMPDEST POP POP POP JUMP JUMPDEST JUMPDEST DUP2 DUP2 LT ISZERO PUSH3 0x526 JUMPI PUSH3 0x51A PUSH0 DUP3 PUSH3 0x4E8 JUMP JUMPDEST PUSH1 0x1 DUP2 ADD SWAP1 POP PUSH3 0x505 JUMP JUMPDEST POP POP JUMP JUMPDEST PUSH1 0x1F DUP3 GT ISZERO PUSH3 0x575 JUMPI PUSH3 0x53F DUP2 PUSH3 0x3F5 JUMP JUMPDEST PUSH3 0x54A DUP5 PUSH3 0x407 JUMP JUMPDEST DUP2 ADD PUSH1 0x20 DUP6 LT ISZERO PUSH3 0x55A JUMPI DUP2 SWAP1 POP JUMPDEST PUSH3 0x572 PUSH3 0x569 DUP6 PUSH3 0x407 JUMP JUMPDEST DUP4 ADD DUP3 PUSH3 0x504 JUMP JUMPDEST POP POP JUMPDEST POP POP POP JUMP JUMPDEST PUSH0 DUP3 DUP3 SHR SWAP1 POP SWAP3 SWAP2 POP POP JUMP JUMPDEST PUSH0 PUSH3 0x597 PUSH0 NOT DUP5 PUSH1 0x8 MUL PUSH3 0x57A JUMP JUMPDEST NOT DUP1 DUP4 AND SWAP2 POP POP SWAP3 SWAP2 POP POP JUMP JUMPDEST PUSH0 PUSH3 0x5B1 DUP4 DUP4 PUSH3 0x586 JUMP JUMPDEST SWAP2 POP DUP3 PUSH1 0x2 MUL DUP3 OR SWAP1 POP SWAP3 SWAP2 POP POP JUMP JUMPDEST PUSH3 0x5CC DUP3 PUSH3 0x35D JUMP JUMPDEST PUSH8 0xFFFFFFFFFFFFFFFF DUP2 GT ISZERO PUSH3 0x5E8 JUMPI PUSH3 0x5E7 PUSH3 0x367 JUMP JUMPDEST JUMPDEST PUSH3 0x5F4 DUP3 SLOAD PUSH3 0x3C1 JUMP JUMPDEST PUSH3 0x601 DUP3 DUP3 DUP6 PUSH3 0x52A JUMP JUMPDEST PUSH0 PUSH1 0x20 SWAP1 POP PUSH1 0x1F DUP4 GT PUSH1 0x1 DUP2 EQ PUSH3 0x637 JUMPI PUSH0 DUP5 ISZERO PUSH3 0x622 JUMPI DUP3 DUP8 ADD MLOAD SWAP1 POP JUMPDEST PUSH3 0x62E DUP6 DUP3 PUSH3 0x5A4 JUMP JUMPDEST DUP7 SSTORE POP PUSH3 0x69D JUMP JUMPDEST PUSH1 0x1F NOT DUP5 AND PUSH3 0x647 DUP7 PUSH3 0x3F5 JUMP JUMPDEST PUSH0 JUMPDEST DUP3 DUP2 LT ISZERO PUSH3 0x670 JUMPI DUP5 DUP10 ADD MLOAD DUP3 SSTORE PUSH1 0x1 DUP3 ADD SWAP2 POP PUSH1 0x20 DUP6 ADD SWAP5 POP PUSH1 0x20 DUP2 ADD SWAP1 POP PUSH3 0x649 JUMP JUMPDEST DUP7 DUP4 LT ISZERO PUSH3 0x690 JUMPI DUP5 DUP10 ADD MLOAD PUSH3 0x68C PUSH1 0x1F DUP10 AND DUP3 PUSH3 0x586 JUMP JUMPDEST DUP4 SSTORE POP JUMPDEST PUSH1 0x1 PUSH1 0x2 DUP9 MUL ADD DUP9 SSTORE POP POP POP JUMPDEST POP POP POP POP POP POP JUMP JUMPDEST PUSH3 0x6B0 DUP2 PUSH3 0x2EB JUMP JUMPDEST DUP3 MSTORE POP POP JUMP JUMPDEST PUSH0 PUSH1 0x20 DUP3 ADD SWAP1 POP PUSH3 0x6CB PUSH0 DUP4 ADD DUP5 PUSH3 0x6A5 JUMP JUMPDEST SWAP3 SWAP2 POP POP JUMP JUMPDEST PUSH0 DUP3 DUP3 MSTORE PUSH1 0x20 DUP3 ADD SWAP1 POP SWAP3 SWAP2 POP POP JUMP JUMPDEST PUSH32 0x566572696669657220616464726573732063616E6E6F74206265207A65726F00 PUSH0 DUP3 ADD MSTORE POP JUMP JUMPDEST PUSH0 PUSH3 0x717 PUSH1 0x1F DUP4 PUSH3 0x6D1 JUMP JUMPDEST SWAP2 POP PUSH3 0x724 DUP3 PUSH3 0x6E1 JUMP JUMPDEST PUSH1 0x20 DUP3 ADD SWAP1 POP SWAP2 SWAP1 POP JUMP JUMPDEST PUSH0 PUSH1 0x20 DUP3 ADD SWAP1 POP DUP2 DUP2 SUB PUSH0 DUP4 ADD MSTORE PUSH3 0x748 DUP2 PUSH3 0x709 JUMP JUMPDEST SWAP1 POP SWAP2 SWAP1 POP JUMP JUMPDEST PUSH2 0x3249 DUP1 PUSH3 0x75D PUSH0 CODECOPY PUSH0 RETURN INVALID PUSH1 0x80 PUSH1 0x40 MSTORE CALLVALUE DUP1 ISZERO PUSH2 0xF JUMPI PUSH0 DUP1 REVERT JUMPDEST POP PUSH1 0x4 CALLDATASIZE LT PUSH2 0x140 JUMPI PUSH0 CALLDATALOAD PUSH1 0xE0 SHR DUP1 PUSH4 0x70A08231 GT PUSH2 0xB6 JUMPI DUP1 PUSH4 0xB88D4FDE GT PUSH2 0x7A JUMPI DUP1 PUSH4 0xB88D4FDE EQ PUSH2 0x35C JUMPI DUP1 PUSH4 0xC87B56DD EQ PUSH2 0x378 JUMPI DUP1 PUSH4 0xCF35BDD0 EQ PUSH2 0x3A8 JUMPI DUP1 PUSH4 0xE5BB219B EQ PUSH2 0x3DC JUMPI DUP1 PUSH4 0xE985E9C5 EQ PUSH2 0x3F8 JUMPI DUP1 PUSH4 0xF2FDE38B EQ PUSH2 0x428 JUMPI PUSH2 0x140 JUMP JUMPDEST DUP1 PUSH4 0x70A08231 EQ PUSH2 0x2CA JUMPI DUP1 PUSH4 0x715018A6 EQ PUSH2 0x2FA JUMPI DUP1 PUSH4 0x8DA5CB5B EQ PUSH2 0x304 JUMPI DUP1 PUSH4 0x95D89B41 EQ PUSH2 0x322 JUMPI DUP1 PUSH4 0xA22CB465 EQ PUSH2 0x340 JUMPI PUSH2 0x140 JUMP JUMPDEST DUP1 PUSH4 0x23B872DD GT PUSH2 0x108 JUMPI DUP1 PUSH4 0x23B872DD EQ PUSH2 0x1FA JUMPI DUP1 PUSH4 0x42842E0E EQ PUSH2 0x216 JUMPI DUP1 PUSH4 0x5437988D EQ PUSH2 0x232 JUMPI DUP1 PUSH4 0x59FD285C EQ PUSH2 0x24E JUMPI DUP1 PUSH4 0x6352211E EQ PUSH2 0x26A JUMPI DUP1 PUSH4 0x6FB748D7 EQ PUSH2 0x29A JUMPI PUSH2 0x140 JUMP JUMPDEST DUP1 PUSH4 0x1FFC9A7 EQ PUSH2 0x144 JUMPI DUP1 PUSH4 0x6FDDE03 EQ PUSH2 0x174 JUMPI DUP1 PUSH4 0x81812FC EQ PUSH2 0x192 JUMPI DUP1 PUSH4 0x95EA7B3 EQ PUSH2 0x1C2 JUMPI DUP1 PUSH4 0x1C38BD69 EQ PUSH2 0x1DE JUMPI JUMPDEST PUSH0 DUP1 REVERT JUMPDEST PUSH2 0x15E PUSH1 0x4 DUP1 CALLDATASIZE SUB DUP2 ADD SWAP1 PUSH2 0x159 SWAP2 SWAP1 PUSH2 0x22EB JUMP JUMPDEST PUSH2 0x444 JUMP JUMPDEST PUSH1 0x40 MLOAD PUSH2 0x16B SWAP2 SWAP1 PUSH2 0x2330 JUMP JUMPDEST PUSH1 0x40 MLOAD DUP1 SWAP2 SUB SWAP1 RETURN JUMPDEST PUSH2 0x17C PUSH2 0x4A4 JUMP JUMPDEST PUSH1 0x40 MLOAD PUSH2 0x189 SWAP2 SWAP1 PUSH2 0x23D3 JUMP JUMPDEST PUSH1 0x40 MLOAD DUP1 SWAP2 SUB SWAP1 RETURN JUMPDEST PUSH2 0x1AC PUSH1 0x4 DUP1 CALLDATASIZE SUB DUP2 ADD SWAP1 PUSH2 0x1A7 SWAP2 SWAP1 PUSH2 0x2426 JUMP JUMPDEST PUSH2 0x533 JUMP JUMPDEST PUSH1 0x40 MLOAD PUSH2 0x1B9 SWAP2 SWAP1 PUSH2 0x2490 JUMP JUMPDEST PUSH1 0x40 MLOAD DUP1 SWAP2 SUB SWAP1 RETURN JUMPDEST PUSH2 0x1DC PUSH1 0x4 DUP1 CALLDATASIZE SUB DUP2 ADD SWAP1 PUSH2 0x1D7 SWAP2 SWAP1 PUSH2 0x24D3 JUMP JUMPDEST PUSH2 0x54E JUMP JUMPDEST STOP JUMPDEST PUSH2 0x1F8 PUSH1 0x4 DUP1 CALLDATASIZE SUB DUP2 ADD SWAP1 PUSH2 0x1F3 SWAP2 SWAP1 PUSH2 0x2511 JUMP JUMPDEST PUSH2 0x564 JUMP JUMPDEST STOP JUMPDEST PUSH2 0x214 PUSH1 0x4 DUP1 CALLDATASIZE SUB DUP2 ADD SWAP1 PUSH2 0x20F SWAP2 SWAP1 PUSH2 0x254F JUMP JUMPDEST PUSH2 0x637 JUMP JUMPDEST STOP JUMPDEST PUSH2 0x230 PUSH1 0x4 DUP1 CALLDATASIZE SUB DUP2 ADD SWAP1 PUSH2 0x22B SWAP2 SWAP1 PUSH2 0x254F JUMP JUMPDEST PUSH2 0x736 JUMP JUMPDEST STOP JUMPDEST PUSH2 0x24C PUSH1 0x4 DUP1 CALLDATASIZE SUB DUP2 ADD SWAP1 PUSH2 0x247 SWAP2 SWAP1 PUSH2 0x259F JUMP JUMPDEST PUSH2 0x755 JUMP JUMPDEST STOP JUMPDEST PUSH2 0x268 PUSH1 0x4 DUP1 CALLDATASIZE SUB DUP2 ADD SWAP1 PUSH2 0x263 SWAP2 SWAP1 PUSH2 0x2426 JUMP JUMPDEST PUSH2 0x80E JUMP JUMPDEST STOP JUMPDEST PUSH2 0x284 PUSH1 0x4 DUP1 CALLDATASIZE SUB DUP2 ADD SWAP1 PUSH2 0x27F SWAP2 SWAP1 PUSH2 0x2426 JUMP JUMPDEST PUSH2 0xA03 JUMP JUMPDEST PUSH1 0x40 MLOAD PUSH2 0x291 SWAP2 SWAP1 PUSH2 0x2490 JUMP JUMPDEST PUSH1 0x40 MLOAD DUP1 SWAP2 SUB SWAP1 RETURN JUMPDEST PUSH2 0x2B4 PUSH1 0x4 DUP1 CALLDATASIZE SUB DUP2 ADD SWAP1 PUSH2 0x2AF SWAP2 SWAP1 PUSH2 0x26F6 JUMP JUMPDEST PUSH2 0xA14 JUMP JUMPDEST PUSH1 0x40 MLOAD PUSH2 0x2C1 SWAP2 SWAP1 PUSH2 0x27D0 JUMP JUMPDEST PUSH1 0x40 MLOAD DUP1 SWAP2 SUB SWAP1 RETURN JUMPDEST PUSH2 0x2E4 PUSH1 0x4 DUP1 CALLDATASIZE SUB DUP2 ADD SWAP1 PUSH2 0x2DF SWAP2 SWAP1 PUSH2 0x259F JUMP JUMPDEST PUSH2 0xBD2 JUMP JUMPDEST PUSH1 0x40 MLOAD PUSH2 0x2F1 SWAP2 SWAP1 PUSH2 0x27D0 JUMP JUMPDEST PUSH1 0x40 MLOAD DUP1 SWAP2 SUB SWAP1 RETURN JUMPDEST PUSH2 0x302 PUSH2 0xC88 JUMP JUMPDEST STOP JUMPDEST PUSH2 0x30C PUSH2 0xC9B JUMP JUMPDEST PUSH1 0x40 MLOAD PUSH2 0x319 SWAP2 SWAP1 PUSH2 0x2490 JUMP JUMPDEST PUSH1 0x40 MLOAD DUP1 SWAP2 SUB SWAP1 RETURN JUMPDEST PUSH2 0x32A PUSH2 0xCC3 JUMP JUMPDEST PUSH1 0x40 MLOAD PUSH2 0x337 SWAP2 SWAP1 PUSH2 0x23D3 JUMP JUMPDEST PUSH1 0x40 MLOAD DUP1 SWAP2 SUB SWAP1 RETURN JUMPDEST PUSH2 0x35A PUSH1 0x4 DUP1 CALLDATASIZE SUB DUP2 ADD SWAP1 PUSH2 0x355 SWAP2 SWAP1 PUSH2 0x2813 JUMP JUMPDEST PUSH2 0xD53 JUMP JUMPDEST STOP JUMPDEST PUSH2 0x376 PUSH1 0x4 DUP1 CALLDATASIZE SUB DUP2 ADD SWAP1 PUSH2 0x371 SWAP2 SWAP1 PUSH2 0x28EF JUMP JUMPDEST PUSH2 0xD69 JUMP JUMPDEST STOP JUMPDEST PUSH2 0x392 PUSH1 0x4 DUP1 CALLDATASIZE SUB DUP2 ADD SWAP1 PUSH2 0x38D SWAP2 SWAP1 PUSH2 0x2426 JUMP JUMPDEST PUSH2 0xD86 JUMP JUMPDEST PUSH1 0x40 MLOAD PUSH2 0x39F SWAP2 SWAP1 PUSH2 0x23D3 JUMP JUMPDEST PUSH1 0x40 MLOAD DUP1 SWAP2 SUB SWAP1 RETURN JUMPDEST PUSH2 0x3C2 PUSH1 0x4 DUP1 CALLDATASIZE SUB DUP2 ADD SWAP1 PUSH2 0x3BD SWAP2 SWAP1 PUSH2 0x2426 JUMP JUMPDEST PUSH2 0xE91 JUMP JUMPDEST PUSH1 0x40 MLOAD PUSH2 0x3D3 SWAP6 SWAP5 SWAP4 SWAP3 SWAP2 SWAP1 PUSH2 0x29E2 JUMP JUMPDEST PUSH1 0x40 MLOAD DUP1 SWAP2 SUB SWAP1 RETURN JUMPDEST PUSH2 0x3F6 PUSH1 0x4 DUP1 CALLDATASIZE SUB DUP2 ADD SWAP1 PUSH2 0x3F1 SWAP2 SWAP1 PUSH2 0x2426 JUMP JUMPDEST PUSH2 0xFDB JUMP JUMPDEST STOP JUMPDEST PUSH2 0x412 PUSH1 0x4 DUP1 CALLDATASIZE SUB DUP2 ADD SWAP1 PUSH2 0x40D SWAP2 SWAP1 PUSH2 0x2A41 JUMP JUMPDEST PUSH2 0x114A JUMP JUMPDEST PUSH1 0x40 MLOAD PUSH2 0x41F SWAP2 SWAP1 PUSH2 0x2330 JUMP JUMPDEST PUSH1 0x40 MLOAD DUP1 SWAP2 SUB SWAP1 RETURN JUMPDEST PUSH2 0x442 PUSH1 0x4 DUP1 CALLDATASIZE SUB DUP2 ADD SWAP1 PUSH2 0x43D SWAP2 SWAP1 PUSH2 0x259F JUMP JUMPDEST PUSH2 0x11D8 JUMP JUMPDEST STOP JUMPDEST PUSH0 PUSH4 0x49064906 PUSH1 0xE0 SHL PUSH28 0xFFFFFFFFFFFFFFFFFFFFFFFFFFFFFFFFFFFFFFFFFFFFFFFFFFFFFFFF NOT AND DUP3 PUSH28 0xFFFFFFFFFFFFFFFFFFFFFFFFFFFFFFFFFFFFFFFFFFFFFFFFFFFFFFFF NOT AND EQ DUP1 PUSH2 0x49D JUMPI POP PUSH2 0x49C DUP3 PUSH2 0x125C JUMP JUMPDEST JUMPDEST SWAP1 POP SWAP2 SWAP1 POP JUMP JUMPDEST PUSH1 0x60 PUSH0 DUP1 SLOAD PUSH2 0x4B2 SWAP1 PUSH2 0x2AAC JUMP JUMPDEST DUP1 PUSH1 0x1F ADD PUSH1 0x20 DUP1 SWAP2 DIV MUL PUSH1 0x20 ADD PUSH1 0x40 MLOAD SWAP1 DUP2 ADD PUSH1 0x40 MSTORE DUP1 SWAP3 SWAP2 SWAP1 DUP2 DUP2 MSTORE PUSH1 0x20 ADD DUP3 DUP1 SLOAD PUSH2 0x4DE SWAP1 PUSH2 0x2AAC JUMP JUMPDEST DUP1 ISZERO PUSH2 0x529 JUMPI DUP1 PUSH1 0x1F LT PUSH2 0x500 JUMPI PUSH2 0x100 DUP1 DUP4 SLOAD DIV MUL DUP4 MSTORE SWAP2 PUSH1 0x20 ADD SWAP2 PUSH2 0x529 JUMP JUMPDEST DUP3 ADD SWAP2 SWAP1 PUSH0 MSTORE PUSH1 0x20 PUSH0 KECCAK256 SWAP1 JUMPDEST DUP2 SLOAD DUP2 MSTORE SWAP1 PUSH1 0x1 ADD SWAP1 PUSH1 0x20 ADD DUP1 DUP4 GT PUSH2 0x50C JUMPI DUP3 SWAP1 SUB PUSH1 0x1F AND DUP3 ADD SWAP2 JUMPDEST POP POP POP POP POP SWAP1 POP SWAP1 JUMP JUMPDEST PUSH0 PUSH2 0x53D DUP3 PUSH2 0x133D JUMP JUMPDEST POP PUSH2 0x547 DUP3 PUSH2 0x13C3 JUMP JUMPDEST SWAP1 POP SWAP2 SWAP1 POP JUMP JUMPDEST PUSH2 0x560 DUP3 DUP3 PUSH2 0x55B PUSH2 0x13FC JUMP JUMPDEST PUSH2 0x1403 JUMP JUMPDEST POP POP JUMP JUMPDEST PUSH2 0x56C PUSH2 0x1415 JUMP JUMPDEST PUSH0 PUSH20 0xFFFFFFFFFFFFFFFFFFFFFFFFFFFFFFFFFFFFFFFF AND PUSH2 0x58C DUP4 PUSH2 0xA03 JUMP JUMPDEST PUSH20 0xFFFFFFFFFFFFFFFFFFFFFFFFFFFFFFFFFFFFFFFF AND SUB PUSH2 0x5E2 JUMPI PUSH1 0x40 MLOAD PUSH32 0x8C379A000000000000000000000000000000000000000000000000000000000 DUP2 MSTORE PUSH1 0x4 ADD PUSH2 0x5D9 SWAP1 PUSH2 0x2B26 JUMP JUMPDEST PUSH1 0x40 MLOAD DUP1 SWAP2 SUB SWAP1 REVERT JUMPDEST DUP1 PUSH1 0xA PUSH0 DUP5 DUP2 MSTORE PUSH1 0x20 ADD SWAP1 DUP2 MSTORE PUSH1 0x20 ADD PUSH0 KECCAK256 PUSH1 0x1 ADD DUP2 SWAP1 SSTORE POP DUP2 PUSH32 0x638A997DA804E89019B7A396F82DD2D059786CFA6CEC3A8E1425C467B5AC5EE5 DUP3 PUSH1 0x40 MLOAD PUSH2 0x62B SWAP2 SWAP1 PUSH2 0x27D0 JUMP JUMPDEST PUSH1 0x40 MLOAD DUP1 SWAP2 SUB SWAP1 LOG2 POP POP JUMP JUMPDEST PUSH0 PUSH20 0xFFFFFFFFFFFFFFFFFFFFFFFFFFFFFFFFFFFFFFFF AND DUP3 PUSH20 0xFFFFFFFFFFFFFFFFFFFFFFFFFFFFFFFFFFFFFFFF AND SUB PUSH2 0x6A7 JUMPI PUSH0 PUSH1 0x40 MLOAD PUSH32 0x64A0AE9200000000000000000000000000000000000000000000000000000000 DUP2 MSTORE PUSH1 0x4 ADD PUSH2 0x69E SWAP2 SWAP1 PUSH2 0x2490 JUMP JUMPDEST PUSH1 0x40 MLOAD DUP1 SWAP2 SUB SWAP1 REVERT JUMPDEST PUSH0 PUSH2 0x6BA DUP4 DUP4 PUSH2 0x6B5 PUSH2 0x13FC JUMP JUMPDEST PUSH2 0x149C JUMP JUMPDEST SWAP1 POP DUP4 PUSH20 0xFFFFFFFFFFFFFFFFFFFFFFFFFFFFFFFFFFFFFFFF AND DUP2 PUSH20 0xFFFFFFFFFFFFFFFFFFFFFFFFFFFFFFFFFFFFFFFF AND EQ PUSH2 0x730 JUMPI DUP4 DUP3 DUP3 PUSH1 0x40 MLOAD PUSH32 0x64283D7B00000000000000000000000000000000000000000000000000000000 DUP2 MSTORE PUSH1 0x4 ADD PUSH2 0x727 SWAP4 SWAP3 SWAP2 SWAP1 PUSH2 0x2B44 JUMP JUMPDEST PUSH1 0x40 MLOAD DUP1 SWAP2 SUB SWAP1 REVERT JUMPDEST POP POP POP POP JUMP JUMPDEST PUSH2 0x750 DUP4 DUP4 DUP4 PUSH1 0x40 MLOAD DUP1 PUSH1 0x20 ADD PUSH1 0x40 MSTORE DUP1 PUSH0 DUP2 MSTORE POP PUSH2 0xD69 JUMP JUMPDEST POP POP POP JUMP JUMPDEST PUSH2 0x75D PUSH2 0x1415 JUMP JUMPDEST PUSH0 PUSH20 0xFFFFFFFFFFFFFFFFFFFFFFFFFFFFFFFFFFFFFFFF AND DUP2 PUSH20 0xFFFFFFFFFFFFFFFFFFFFFFFFFFFFFFFFFFFFFFFF AND SUB PUSH2 0x7CB JUMPI PUSH1 0x40 MLOAD PUSH32 0x8C379A000000000000000000000000000000000000000000000000000000000 DUP2 MSTORE PUSH1 0x4 ADD PUSH2 0x7C2 SWAP1 PUSH2 0x2BC3 JUMP JUMPDEST PUSH1 0x40 MLOAD DUP1 SWAP2 SUB SWAP1 REVERT JUMPDEST DUP1 PUSH1 0x9 PUSH0 PUSH2 0x100 EXP DUP2 SLOAD DUP2 PUSH20 0xFFFFFFFFFFFFFFFFFFFFFFFFFFFFFFFFFFFFFFFF MUL NOT AND SWAP1 DUP4 PUSH20 0xFFFFFFFFFFFFFFFFFFFFFFFFFFFFFFFFFFFFFFFF AND MUL OR SWAP1 SSTORE POP POP JUMP JUMPDEST PUSH1 0x9 PUSH0 SWAP1 SLOAD SWAP1 PUSH2 0x100 EXP SWAP1 DIV PUSH20 0xFFFFFFFFFFFFFFFFFFFFFFFFFFFFFFFFFFFFFFFF AND PUSH20 0xFFFFFFFFFFFFFFFFFFFFFFFFFFFFFFFFFFFFFFFF AND CALLER PUSH20 0xFFFFFFFFFFFFFFFFFFFFFFFFFFFFFFFFFFFFFFFF AND EQ PUSH2 0x89D JUMPI PUSH1 0x40 MLOAD PUSH32 0x8C379A000000000000000000000000000000000000000000000000000000000 DUP2 MSTORE PUSH1 0x4 ADD PUSH2 0x894 SWAP1 PUSH2 0x2C2B JUMP JUMPDEST PUSH1 0x40 MLOAD DUP1 SWAP2 SUB SWAP1 REVERT JUMPDEST PUSH0 PUSH20 0xFFFFFFFFFFFFFFFFFFFFFFFFFFFFFFFFFFFFFFFF AND PUSH2 0x8BD DUP3 PUSH2 0xA03 JUMP JUMPDEST PUSH20 0xFFFFFFFFFFFFFFFFFFFFFFFFFFFFFFFFFFFFFFFF AND SUB PUSH2 0x913 JUMPI PUSH1 0x40 MLOAD PUSH32 0x8C379A000000000000000000000000000000000000000000000000000000000 DUP2 MSTORE PUSH1 0x4 ADD PUSH2 0x90A SWAP1 PUSH2 0x2B26 JUMP JUMPDEST PUSH1 0x40 MLOAD DUP1 SWAP2 SUB SWAP1 REVERT JUMPDEST PUSH0 PUSH1 0xA PUSH0 DUP4 DUP2 MSTORE PUSH1 0x20 ADD SWAP1 DUP2 MSTORE PUSH1 0x20 ADD PUSH0 KECCAK256 SWAP1 POP PUSH0 PUSH1 0x2 DUP2 GT ISZERO PUSH2 0x93A JUMPI PUSH2 0x939 PUSH2 0x296F JUMP JUMPDEST JUMPDEST DUP2 PUSH1 0x3 ADD PUSH0 SWAP1 SLOAD SWAP1 PUSH2 0x100 EXP SWAP1 DIV PUSH1 0xFF AND PUSH1 0x2 DUP2 GT ISZERO PUSH2 0x95D JUMPI PUSH2 0x95C PUSH2 0x296F JUMP JUMPDEST JUMPDEST EQ PUSH2 0x99D JUMPI PUSH1 0x40 MLOAD PUSH32 0x8C379A000000000000000000000000000000000000000000000000000000000 DUP2 MSTORE PUSH1 0x4 ADD PUSH2 0x994 SWAP1 PUSH2 0x2CB9 JUMP JUMPDEST PUSH1 0x40 MLOAD DUP1 SWAP2 SUB SWAP1 REVERT JUMPDEST PUSH1 0x1 DUP2 PUSH1 0x3 ADD PUSH0 PUSH2 0x100 EXP DUP2 SLOAD DUP2 PUSH1 0xFF MUL NOT AND SWAP1 DUP4 PUSH1 0x2 DUP2 GT ISZERO PUSH2 0x9C4 JUMPI PUSH2 0x9C3 PUSH2 0x296F JUMP JUMPDEST JUMPDEST MUL OR SWAP1 SSTORE POP TIMESTAMP DUP2 PUSH1 0x4 ADD DUP2 SWAP1 SSTORE POP DUP2 PUSH32 0x7115FA7500082019331BB00CAAA9CC745AC6D0414C2AF51872C3B69493C9942C PUSH1 0x40 MLOAD PUSH1 0x40 MLOAD DUP1 SWAP2 SUB SWAP1 LOG2 POP POP JUMP JUMPDEST PUSH0 PUSH2 0xA0D DUP3 PUSH2 0x133D JUMP JUMPDEST SWAP1 POP SWAP2 SWAP1 POP JUMP JUMPDEST PUSH0 PUSH2 0xA1D PUSH2 0x1415 JUMP JUMPDEST PUSH0 PUSH20 0xFFFFFFFFFFFFFFFFFFFFFFFFFFFFFFFFFFFFFFFF AND DUP7 PUSH20 0xFFFFFFFFFFFFFFFFFFFFFFFFFFFFFFFFFFFFFFFF AND SUB PUSH2 0xA8B JUMPI PUSH1 0x40 MLOAD PUSH32 0x8C379A000000000000000000000000000000000000000000000000000000000 DUP2 MSTORE PUSH1 0x4 ADD PUSH2 0xA82 SWAP1 PUSH2 0x2D21 JUMP JUMPDEST PUSH1 0x40 MLOAD DUP1 SWAP2 SUB SWAP1 REVERT JUMPDEST PUSH0 PUSH1 0x8 SLOAD SWAP1 POP PUSH1 0x8 PUSH0 DUP2 SLOAD DUP1 SWAP3 SWAP2 SWAP1 PUSH2 0xAA3 SWAP1 PUSH2 0x2D6C JUMP JUMPDEST SWAP2 SWAP1 POP SSTORE POP PUSH1 0x40 MLOAD DUP1 PUSH1 0xA0 ADD PUSH1 0x40 MSTORE DUP1 DUP7 DUP2 MSTORE PUSH1 0x20 ADD DUP6 DUP2 MSTORE PUSH1 0x20 ADD DUP5 DUP2 MSTORE PUSH1 0x20 ADD PUSH0 PUSH1 0x2 DUP2 GT ISZERO PUSH2 0xAD8 JUMPI PUSH2 0xAD7 PUSH2 0x296F JUMP JUMPDEST JUMPDEST DUP2 MSTORE PUSH1 0x20 ADD TIMESTAMP DUP2 MSTORE POP PUSH1 0xA PUSH0 DUP4 DUP2 MSTORE PUSH1 0x20 ADD SWAP1 DUP2 MSTORE PUSH1 0x20 ADD PUSH0 KECCAK256 PUSH0 DUP3 ADD MLOAD DUP2 PUSH0 ADD SWAP1 DUP2 PUSH2 0xB05 SWAP2 SWAP1 PUSH2 0x2F50 JUMP JUMPDEST POP PUSH1 0x20 DUP3 ADD MLOAD DUP2 PUSH1 0x1 ADD SSTORE PUSH1 0x40 DUP3 ADD MLOAD DUP2 PUSH1 0x2 ADD SWAP1 DUP2 PUSH2 0xB25 SWAP2 SWAP1 PUSH2 0x2F50 JUMP JUMPDEST POP PUSH1 0x60 DUP3 ADD MLOAD DUP2 PUSH1 0x3 ADD PUSH0 PUSH2 0x100 EXP DUP2 SLOAD DUP2 PUSH1 0xFF MUL NOT AND SWAP1 DUP4 PUSH1 0x2 DUP2 GT ISZERO PUSH2 0xB50 JUMPI PUSH2 0xB4F PUSH2 0x296F JUMP JUMPDEST JUMPDEST MUL OR SWAP1 SSTORE POP PUSH1 0x80 DUP3 ADD MLOAD DUP2 PUSH1 0x4 ADD SSTORE SWAP1 POP POP PUSH2 0xB6C DUP8 DUP3 PUSH2 0x16A7 JUMP JUMPDEST PUSH2 0xB76 DUP2 DUP8 PUSH2 0x16C4 JUMP JUMPDEST DUP7 PUSH20 0xFFFFFFFFFFFFFFFFFFFFFFFFFFFFFFFFFFFFFFFF AND DUP2 PUSH32 0x522902797ECF25ADB7FE6834ED0D749090896244923F1C3E0B7CA938687EA08F DUP8 PUSH1 0x40 MLOAD PUSH2 0xBBD SWAP2 SWAP1 PUSH2 0x23D3 JUMP JUMPDEST PUSH1 0x40 MLOAD DUP1 SWAP2 SUB SWAP1 LOG3 DUP1 SWAP2 POP POP SWAP6 SWAP5 POP POP POP POP POP JUMP JUMPDEST PUSH0 DUP1 PUSH20 0xFFFFFFFFFFFFFFFFFFFFFFFFFFFFFFFFFFFFFFFF AND DUP3 PUSH20 0xFFFFFFFFFFFFFFFFFFFFFFFFFFFFFFFFFFFFFFFF AND SUB PUSH2 0xC43 JUMPI PUSH0 PUSH1 0x40 MLOAD PUSH32 0x89C62B6400000000000000000000000000000000000000000000000000000000 DUP2 MSTORE PUSH1 0x4 ADD PUSH2 0xC3A SWAP2 SWAP1 PUSH2 0x2490 JUMP JUMPDEST PUSH1 0x40 MLOAD DUP1 SWAP2 SUB SWAP1 REVERT JUMPDEST PUSH1 0x3 PUSH0 DUP4 PUSH20 0xFFFFFFFFFFFFFFFFFFFFFFFFFFFFFFFFFFFFFFFF AND PUSH20 0xFFFFFFFFFFFFFFFFFFFFFFFFFFFFFFFFFFFFFFFF AND DUP2 MSTORE PUSH1 0x20 ADD SWAP1 DUP2 MSTORE PUSH1 0x20 ADD PUSH0 KECCAK256 SLOAD SWAP1 POP SWAP2 SWAP1 POP JUMP JUMPDEST PUSH2 0xC90 PUSH2 0x1415 JUMP JUMPDEST PUSH2 0xC99 PUSH0 PUSH2 0x171E JUMP JUMPDEST JUMP JUMPDEST PUSH0 PUSH1 0x7 PUSH0 SWAP1 SLOAD SWAP1 PUSH2 0x100 EXP SWAP1 DIV PUSH20 0xFFFFFFFFFFFFFFFFFFFFFFFFFFFFFFFFFFFFFFFF AND SWAP1 POP SWAP1 JUMP JUMPDEST PUSH1 0x60 PUSH1 0x1 DUP1 SLOAD PUSH2 0xCD2 SWAP1 PUSH2 0x2AAC JUMP JUMPDEST DUP1 PUSH1 0x1F ADD PUSH1 0x20 DUP1 SWAP2 DIV MUL PUSH1 0x20 ADD PUSH1 0x40 MLOAD SWAP1 DUP2 ADD PUSH1 0x40 MSTORE DUP1 SWAP3 SWAP2 SWAP1 DUP2 DUP2 MSTORE PUSH1 0x20 ADD DUP3 DUP1 SLOAD PUSH2 0xCFE SWAP1 PUSH2 0x2AAC JUMP JUMPDEST DUP1 ISZERO PUSH2 0xD49 JUMPI DUP1 PUSH1 0x1F LT PUSH2 0xD20 JUMPI PUSH2 0x100 DUP1 DUP4 SLOAD DIV MUL DUP4 MSTORE SWAP2 PUSH1 0x20 ADD SWAP2 PUSH2 0xD49 JUMP JUMPDEST DUP3 ADD SWAP2 SWAP1 PUSH0 MSTORE PUSH1 0x20 PUSH0 KECCAK256 SWAP1 JUMPDEST DUP2 SLOAD DUP2 MSTORE SWAP1 PUSH1 0x1 ADD SWAP1 PUSH1 0x20 ADD DUP1 DUP4 GT PUSH2 0xD2C JUMPI DUP3 SWAP1 SUB PUSH1 0x1F AND DUP3 ADD SWAP2 JUMPDEST POP POP POP POP POP SWAP1 POP SWAP1 JUMP JUMPDEST PUSH2 0xD65 PUSH2 0xD5E PUSH2 0x13FC JUMP JUMPDEST DUP4 DUP4 PUSH2 0x17E1 JUMP JUMPDEST POP POP JUMP JUMPDEST PUSH2 0xD74 DUP5 DUP5 DUP5 PUSH2 0x637 JUMP JUMPDEST PUSH2 0xD80 DUP5 DUP5 DUP5 DUP5 PUSH2 0x194A JUMP JUMPDEST POP POP POP POP JUMP JUMPDEST PUSH1 0x60 PUSH2 0xD91 DUP3 PUSH2 0x133D JUMP JUMPDEST POP PUSH0 PUSH1 0x6 PUSH0 DUP5 DUP2 MSTORE PUSH1 0x20 ADD SWAP1 DUP2 MSTORE PUSH1 0x20 ADD PUSH0 KECCAK256 DUP1 SLOAD PUSH2 0xDAF SWAP1 PUSH2 0x2AAC JUMP JUMPDEST DUP1 PUSH1 0x1F ADD PUSH1 0x20 DUP1 SWAP2 DIV MUL PUSH1 0x20 ADD PUSH1 0x40 MLOAD SWAP1 DUP2 ADD PUSH1 0x40 MSTORE DUP1 SWAP3 SWAP2 SWAP1 DUP2 DUP2 MSTORE PUSH1 0x20 ADD DUP3 DUP1 SLOAD PUSH2 0xDDB SWAP1 PUSH2 0x2AAC JUMP JUMPDEST DUP1 ISZERO PUSH2 0xE26 JUMPI DUP1 PUSH1 0x1F LT PUSH2 0xDFD JUMPI PUSH2 0x100 DUP1 DUP4 SLOAD DIV MUL DUP4 MSTORE SWAP2 PUSH1 0x20 ADD SWAP2 PUSH2 0xE26 JUMP JUMPDEST DUP3 ADD SWAP2 SWAP1 PUSH0 MSTORE PUSH1 0x20 PUSH0 KECCAK256 SWAP1 JUMPDEST DUP2 SLOAD DUP2 MSTORE SWAP1 PUSH1 0x1 ADD SWAP1 PUSH1 0x20 ADD DUP1 DUP4 GT PUSH2 0xE09 JUMPI DUP3 SWAP1 SUB PUSH1 0x1F AND DUP3 ADD SWAP2 JUMPDEST POP POP POP POP POP SWAP1 POP PUSH0 PUSH2 0xE36 PUSH2 0x1AFC JUMP JUMPDEST SWAP1 POP PUSH0 DUP2 MLOAD SUB PUSH2 0xE4A JUMPI DUP2 SWAP3 POP POP POP PUSH2 0xE8C JUMP JUMPDEST PUSH0 DUP3 MLOAD GT ISZERO PUSH2 0xE7E JUMPI DUP1 DUP3 PUSH1 0x40 MLOAD PUSH1 0x20 ADD PUSH2 0xE66 SWAP3 SWAP2 SWAP1 PUSH2 0x3059 JUMP JUMPDEST PUSH1 0x40 MLOAD PUSH1 0x20 DUP2 DUP4 SUB SUB DUP2 MSTORE SWAP1 PUSH1 0x40 MSTORE SWAP3 POP POP POP PUSH2 0xE8C JUMP JUMPDEST PUSH2 0xE87 DUP5 PUSH2 0x1B12 JUMP JUMPDEST SWAP3 POP POP POP JUMPDEST SWAP2 SWAP1 POP JUMP JUMPDEST PUSH1 0xA PUSH1 0x20 MSTORE DUP1 PUSH0 MSTORE PUSH1 0x40 PUSH0 KECCAK256 PUSH0 SWAP2 POP SWAP1 POP DUP1 PUSH0 ADD DUP1 SLOAD PUSH2 0xEB0 SWAP1 PUSH2 0x2AAC JUMP JUMPDEST DUP1 PUSH1 0x1F ADD PUSH1 0x20 DUP1 SWAP2 DIV MUL PUSH1 0x20 ADD PUSH1 0x40 MLOAD SWAP1 DUP2 ADD PUSH1 0x40 MSTORE DUP1 SWAP3 SWAP2 SWAP1 DUP2 DUP2 MSTORE PUSH1 0x20 ADD DUP3 DUP1 SLOAD PUSH2 0xEDC SWAP1 PUSH2 0x2AAC JUMP JUMPDEST DUP1 ISZERO PUSH2 0xF27 JUMPI DUP1 PUSH1 0x1F LT PUSH2 0xEFE JUMPI PUSH2 0x100 DUP1 DUP4 SLOAD DIV MUL DUP4 MSTORE SWAP2 PUSH1 0x20 ADD SWAP2 PUSH2 0xF27 JUMP JUMPDEST DUP3 ADD SWAP2 SWAP1 PUSH0 MSTORE PUSH1 0x20 PUSH0 KECCAK256 SWAP1 JUMPDEST DUP2 SLOAD DUP2 MSTORE SWAP1 PUSH1 0x1 ADD SWAP1 PUSH1 0x20 ADD DUP1 DUP4 GT PUSH2 0xF0A JUMPI DUP3 SWAP1 SUB PUSH1 0x1F AND DUP3 ADD SWAP2 JUMPDEST POP POP POP POP POP SWAP1 DUP1 PUSH1 0x1 ADD SLOAD SWAP1 DUP1 PUSH1 0x2 ADD DUP1 SLOAD PUSH2 0xF42 SWAP1 PUSH2 0x2AAC JUMP JUMPDEST DUP1 PUSH1 0x1F ADD PUSH1 0x20 DUP1 SWAP2 DIV MUL PUSH1 0x20 ADD PUSH1 0x40 MLOAD SWAP1 DUP2 ADD PUSH1 0x40 MSTORE DUP1 SWAP3 SWAP2 SWAP1 DUP2 DUP2 MSTORE PUSH1 0x20 ADD DUP3 DUP1 SLOAD PUSH2 0xF6E SWAP1 PUSH2 0x2AAC JUMP JUMPDEST DUP1 ISZERO PUSH2 0xFB9 JUMPI DUP1 PUSH1 0x1F LT PUSH2 0xF90 JUMPI PUSH2 0x100 DUP1 DUP4 SLOAD DIV MUL DUP4 MSTORE SWAP2 PUSH1 0x20 ADD SWAP2 PUSH2 0xFB9 JUMP JUMPDEST DUP3 ADD SWAP2 SWAP1 PUSH0 MSTORE PUSH1 0x20 PUSH0 KECCAK256 SWAP1 JUMPDEST DUP2 SLOAD DUP2 MSTORE SWAP1 PUSH1 0x1 ADD SWAP1 PUSH1 0x20 ADD DUP1 DUP4 GT PUSH2 0xF9C JUMPI DUP3 SWAP1 SUB PUSH1 0x1F AND DUP3 ADD SWAP2 JUMPDEST POP POP POP POP POP SWAP1 DUP1 PUSH1 0x3 ADD PUSH0 SWAP1 SLOAD SWAP1 PUSH2 0x100 EXP SWAP1 DIV PUSH1 0xFF AND SWAP1 DUP1 PUSH1 0x4 ADD SLOAD SWAP1 POP DUP6 JUMP JUMPDEST PUSH2 0xFE3 PUSH2 0x1415 JUMP JUMPDEST PUSH0 PUSH20 0xFFFFFFFFFFFFFFFFFFFFFFFFFFFFFFFFFFFFFFFF AND PUSH2 0x1003 DUP3 PUSH2 0xA03 JUMP JUMPDEST PUSH20 0xFFFFFFFFFFFFFFFFFFFFFFFFFFFFFFFFFFFFFFFF AND SUB PUSH2 0x1059 JUMPI PUSH1 0x40 MLOAD PUSH32 0x8C379A000000000000000000000000000000000000000000000000000000000 DUP2 MSTORE PUSH1 0x4 ADD PUSH2 0x1050 SWAP1 PUSH2 0x2B26 JUMP JUMPDEST PUSH1 0x40 MLOAD DUP1 SWAP2 SUB SWAP1 REVERT JUMPDEST PUSH0 PUSH1 0xA PUSH0 DUP4 DUP2 MSTORE PUSH1 0x20 ADD SWAP1 DUP2 MSTORE PUSH1 0x20 ADD PUSH0 KECCAK256 SWAP1 POP PUSH1 0x1 PUSH1 0x2 DUP2 GT ISZERO PUSH2 0x1081 JUMPI PUSH2 0x1080 PUSH2 0x296F JUMP JUMPDEST JUMPDEST DUP2 PUSH1 0x3 ADD PUSH0 SWAP1 SLOAD SWAP1 PUSH2 0x100 EXP SWAP1 DIV PUSH1 0xFF AND PUSH1 0x2 DUP2 GT ISZERO PUSH2 0x10A4 JUMPI PUSH2 0x10A3 PUSH2 0x296F JUMP JUMPDEST JUMPDEST EQ PUSH2 0x10E4 JUMPI PUSH1 0x40 MLOAD PUSH32 0x8C379A000000000000000000000000000000000000000000000000000000000 DUP2 MSTORE PUSH1 0x4 ADD PUSH2 0x10DB SWAP1 PUSH2 0x30C6 JUMP JUMPDEST PUSH1 0x40 MLOAD DUP1 SWAP2 SUB SWAP1 REVERT JUMPDEST PUSH1 0x2 DUP2 PUSH1 0x3 ADD PUSH0 PUSH2 0x100 EXP DUP2 SLOAD DUP2 PUSH1 0xFF MUL NOT AND SWAP1 DUP4 PUSH1 0x2 DUP2 GT ISZERO PUSH2 0x110B JUMPI PUSH2 0x110A PUSH2 0x296F JUMP JUMPDEST JUMPDEST MUL OR SWAP1 SSTORE POP TIMESTAMP DUP2 PUSH1 0x4 ADD DUP2 SWAP1 SSTORE POP DUP2 PUSH32 0x319131F003ED5AA314447D2ACF1FD60D6F698BB73F9E9A19E77DE492D513895 PUSH1 0x40 MLOAD PUSH1 0x40 MLOAD DUP1 SWAP2 SUB SWAP1 LOG2 POP POP JUMP JUMPDEST PUSH0 PUSH1 0x5 PUSH0 DUP5 PUSH20 0xFFFFFFFFFFFFFFFFFFFFFFFFFFFFFFFFFFFFFFFF AND PUSH20 0xFFFFFFFFFFFFFFFFFFFFFFFFFFFFFFFFFFFFFFFF AND DUP2 MSTORE PUSH1 0x20 ADD SWAP1 DUP2 MSTORE PUSH1 0x20 ADD PUSH0 KECCAK256 PUSH0 DUP4 PUSH20 0xFFFFFFFFFFFFFFFFFFFFFFFFFFFFFFFFFFFFFFFF AND PUSH20 0xFFFFFFFFFFFFFFFFFFFFFFFFFFFFFFFFFFFFFFFF AND DUP2 MSTORE PUSH1 0x20 ADD SWAP1 DUP2 MSTORE PUSH1 0x20 ADD PUSH0 KECCAK256 PUSH0 SWAP1 SLOAD SWAP1 PUSH2 0x100 EXP SWAP1 DIV PUSH1 0xFF AND SWAP1 POP SWAP3 SWAP2 POP POP JUMP JUMPDEST PUSH2 0x11E0 PUSH2 0x1415 JUMP JUMPDEST PUSH0 PUSH20 0xFFFFFFFFFFFFFFFFFFFFFFFFFFFFFFFFFFFFFFFF AND DUP2 PUSH20 0xFFFFFFFFFFFFFFFFFFFFFFFFFFFFFFFFFFFFFFFF AND SUB PUSH2 0x1250 JUMPI PUSH0 PUSH1 0x40 MLOAD PUSH32 0x1E4FBDF700000000000000000000000000000000000000000000000000000000 DUP2 MSTORE PUSH1 0x4 ADD PUSH2 0x1247 SWAP2 SWAP1 PUSH2 0x2490 JUMP JUMPDEST PUSH1 0x40 MLOAD DUP1 SWAP2 SUB SWAP1 REVERT JUMPDEST PUSH2 0x1259 DUP2 PUSH2 0x171E JUMP JUMPDEST POP JUMP JUMPDEST PUSH0 PUSH32 0x80AC58CD00000000000000000000000000000000000000000000000000000000 PUSH28 0xFFFFFFFFFFFFFFFFFFFFFFFFFFFFFFFFFFFFFFFFFFFFFFFFFFFFFFFF NOT AND DUP3 PUSH28 0xFFFFFFFFFFFFFFFFFFFFFFFFFFFFFFFFFFFFFFFFFFFFFFFFFFFFFFFF NOT AND EQ DUP1 PUSH2 0x1326 JUMPI POP PUSH32 0x5B5E139F00000000000000000000000000000000000000000000000000000000 PUSH28 0xFFFFFFFFFFFFFFFFFFFFFFFFFFFFFFFFFFFFFFFFFFFFFFFFFFFFFFFF NOT AND DUP3 PUSH28 0xFFFFFFFFFFFFFFFFFFFFFFFFFFFFFFFFFFFFFFFFFFFFFFFFFFFFFFFF NOT AND EQ JUMPDEST DUP1 PUSH2 0x1336 JUMPI POP PUSH2 0x1335 DUP3 PUSH2 0x1B78 JUMP JUMPDEST JUMPDEST SWAP1 POP SWAP2 SWAP1 POP JUMP JUMPDEST PUSH0 DUP1 PUSH2 0x1348 DUP4 PUSH2 0x1BE1 JUMP JUMPDEST SWAP1 POP PUSH0 PUSH20 0xFFFFFFFFFFFFFFFFFFFFFFFFFFFFFFFFFFFFFFFF AND DUP2 PUSH20 0xFFFFFFFFFFFFFFFFFFFFFFFFFFFFFFFFFFFFFFFF AND SUB PUSH2 0x13BA JUMPI DUP3 PUSH1 0x40 MLOAD PUSH32 0x7E27328900000000000000000000000000000000000000000000000000000000 DUP2 MSTORE PUSH1 0x4 ADD PUSH2 0x13B1 SWAP2 SWAP1 PUSH2 0x27D0 JUMP JUMPDEST PUSH1 0x40 MLOAD DUP1 SWAP2 SUB SWAP1 REVERT JUMPDEST DUP1 SWAP2 POP POP SWAP2 SWAP1 POP JUMP JUMPDEST PUSH0 PUSH1 0x4 PUSH0 DUP4 DUP2 MSTORE PUSH1 0x20 ADD SWAP1 DUP2 MSTORE PUSH1 0x20 ADD PUSH0 KECCAK256 PUSH0 SWAP1 SLOAD SWAP1 PUSH2 0x100 EXP SWAP1 DIV PUSH20 0xFFFFFFFFFFFFFFFFFFFFFFFFFFFFFFFFFFFFFFFF AND SWAP1 POP SWAP2 SWAP1 POP JUMP JUMPDEST PUSH0 CALLER SWAP1 POP SWAP1 JUMP JUMPDEST PUSH2 0x1410 DUP4 DUP4 DUP4 PUSH1 0x1 PUSH2 0x1C1A JUMP JUMPDEST POP POP POP JUMP JUMPDEST PUSH2 0x141D PUSH2 0x13FC JUMP JUMPDEST PUSH20 0xFFFFFFFFFFFFFFFFFFFFFFFFFFFFFFFFFFFFFFFF AND PUSH2 0x143B PUSH2 0xC9B JUMP JUMPDEST PUSH20 0xFFFFFFFFFFFFFFFFFFFFFFFFFFFFFFFFFFFFFFFF AND EQ PUSH2 0x149A JUMPI PUSH2 0x145E PUSH2 0x13FC JUMP JUMPDEST PUSH1 0x40 MLOAD PUSH32 0x118CDAA700000000000000000000000000000000000000000000000000000000 DUP2 MSTORE PUSH1 0x4 ADD PUSH2 0x1491 SWAP2 SWAP1 PUSH2 0x2490 JUMP JUMPDEST PUSH1 0x40 MLOAD DUP1 SWAP2 SUB SWAP1 REVERT JUMPDEST JUMP JUMPDEST PUSH0 DUP1 PUSH2 0x14A7 DUP5 PUSH2 0x1BE1 JUMP JUMPDEST SWAP1 POP PUSH0 PUSH20 0xFFFFFFFFFFFFFFFFFFFFFFFFFFFFFFFFFFFFFFFF AND DUP4 PUSH20 0xFFFFFFFFFFFFFFFFFFFFFFFFFFFFFFFFFFFFFFFF AND EQ PUSH2 0x14E8 JUMPI PUSH2 0x14E7 DUP2 DUP5 DUP7 PUSH2 0x1DD9 JUMP JUMPDEST JUMPDEST PUSH0 PUSH20 0xFFFFFFFFFFFFFFFFFFFFFFFFFFFFFFFFFFFFFFFF AND DUP2 PUSH20 0xFFFFFFFFFFFFFFFFFFFFFFFFFFFFFFFFFFFFFFFF AND EQ PUSH2 0x1573 JUMPI PUSH2 0x1527 PUSH0 DUP6 PUSH0 DUP1 PUSH2 0x1C1A JUMP JUMPDEST PUSH1 0x1 PUSH1 0x3 PUSH0 DUP4 PUSH20 0xFFFFFFFFFFFFFFFFFFFFFFFFFFFFFFFFFFFFFFFF AND PUSH20 0xFFFFFFFFFFFFFFFFFFFFFFFFFFFFFFFFFFFFFFFF AND DUP2 MSTORE PUSH1 0x20 ADD SWAP1 DUP2 MSTORE PUSH1 0x20 ADD PUSH0 KECCAK256 PUSH0 DUP3 DUP3 SLOAD SUB SWAP3 POP POP DUP2 SWAP1 SSTORE POP JUMPDEST PUSH0 PUSH20 0xFFFFFFFFFFFFFFFFFFFFFFFFFFFFFFFFFFFFFFFF AND DUP6 PUSH20 0xFFFFFFFFFFFFFFFFFFFFFFFFFFFFFFFFFFFFFFFF AND EQ PUSH2 0x15F2 JUMPI PUSH1 0x1 PUSH1 0x3 PUSH0 DUP8 PUSH20 0xFFFFFFFFFFFFFFFFFFFFFFFFFFFFFFFFFFFFFFFF AND PUSH20 0xFFFFFFFFFFFFFFFFFFFFFFFFFFFFFFFFFFFFFFFF AND DUP2 MSTORE PUSH1 0x20 ADD SWAP1 DUP2 MSTORE PUSH1 0x20 ADD PUSH0 KECCAK256 PUSH0 DUP3 DUP3 SLOAD ADD SWAP3 POP POP DUP2 SWAP1 SSTORE POP JUMPDEST DUP5 PUSH1 0x2 PUSH0 DUP7 DUP2 MSTORE PUSH1 0x20 ADD SWAP1 DUP2 MSTORE PUSH1 0x20 ADD PUSH0 KECCAK256 PUSH0 PUSH2 0x100 EXP DUP2 SLOAD DUP2 PUSH20 0xFFFFFFFFFFFFFFFFFFFFFFFFFFFFFFFFFFFFFFFF MUL NOT AND SWAP1 DUP4 PUSH20 0xFFFFFFFFFFFFFFFFFFFFFFFFFFFFFFFFFFFFFFFF AND MUL OR SWAP1 SSTORE POP DUP4 DUP6 PUSH20 0xFFFFFFFFFFFFFFFFFFFFFFFFFFFFFFFFFFFFFFFF AND DUP3 PUSH20 0xFFFFFFFFFFFFFFFFFFFFFFFFFFFFFFFFFFFFFFFF AND PUSH32 0xDDF252AD1BE2C89B69C2B068FC378DAA952BA7F163C4A11628F55A4DF523B3EF PUSH1 0x40 MLOAD PUSH1 0x40 MLOAD DUP1 SWAP2 SUB SWAP1 LOG4 DUP1 SWAP2 POP POP SWAP4 SWAP3 POP POP POP JUMP JUMPDEST PUSH2 0x16C0 DUP3 DUP3 PUSH1 0x40 MLOAD DUP1 PUSH1 0x20 ADD PUSH1 0x40 MSTORE DUP1 PUSH0 DUP2 MSTORE POP PUSH2 0x1E9C JUMP JUMPDEST POP POP JUMP JUMPDEST DUP1 PUSH1 0x6 PUSH0 DUP5 DUP2 MSTORE PUSH1 0x20 ADD SWAP1 DUP2 MSTORE PUSH1 0x20 ADD PUSH0 KECCAK256 SWAP1 DUP2 PUSH2 0x16E2 SWAP2 SWAP1 PUSH2 0x2F50 JUMP JUMPDEST POP PUSH32 0xF8E1A15ABA9398E019F0B49DF1A4FDE98EE17AE345CB5F6B5E2C27F5033E8CE7 DUP3 PUSH1 0x40 MLOAD PUSH2 0x1712 SWAP2 SWAP1 PUSH2 0x27D0 JUMP JUMPDEST PUSH1 0x40 MLOAD DUP1 SWAP2 SUB SWAP1 LOG1 POP POP JUMP JUMPDEST PUSH0 PUSH1 0x7 PUSH0 SWAP1 SLOAD SWAP1 PUSH2 0x100 EXP SWAP1 DIV PUSH20 0xFFFFFFFFFFFFFFFFFFFFFFFFFFFFFFFFFFFFFFFF AND SWAP1 POP DUP2 PUSH1 0x7 PUSH0 PUSH2 0x100 EXP DUP2 SLOAD DUP2 PUSH20 0xFFFFFFFFFFFFFFFFFFFFFFFFFFFFFFFFFFFFFFFF MUL NOT AND SWAP1 DUP4 PUSH20 0xFFFFFFFFFFFFFFFFFFFFFFFFFFFFFFFFFFFFFFFF AND MUL OR SWAP1 SSTORE POP DUP2 PUSH20 0xFFFFFFFFFFFFFFFFFFFFFFFFFFFFFFFFFFFFFFFF AND DUP2 PUSH20 0xFFFFFFFFFFFFFFFFFFFFFFFFFFFFFFFFFFFFFFFF AND PUSH32 0x8BE0079C531659141344CD1FD0A4F28419497F9722A3DAAFE3B4186F6B6457E0 PUSH1 0x40 MLOAD PUSH1 0x40 MLOAD DUP1 SWAP2 SUB SWAP1 LOG3 POP POP JUMP JUMPDEST PUSH0 PUSH20 0xFFFFFFFFFFFFFFFFFFFFFFFFFFFFFFFFFFFFFFFF AND DUP3 PUSH20 0xFFFFFFFFFFFFFFFFFFFFFFFFFFFFFFFFFFFFFFFF AND SUB PUSH2 0x1851 JUMPI DUP2 PUSH1 0x40 MLOAD PUSH32 0x5B08BA1800000000000000000000000000000000000000000000000000000000 DUP2 MSTORE PUSH1 0x4 ADD PUSH2 0x1848 SWAP2 SWAP1 PUSH2 0x2490 JUMP JUMPDEST PUSH1 0x40 MLOAD DUP1 SWAP2 SUB SWAP1 REVERT JUMPDEST DUP1 PUSH1 0x5 PUSH0 DUP6 PUSH20 0xFFFFFFFFFFFFFFFFFFFFFFFFFFFFFFFFFFFFFFFF AND PUSH20 0xFFFFFFFFFFFFFFFFFFFFFFFFFFFFFFFFFFFFFFFF AND DUP2 MSTORE PUSH1 0x20 ADD SWAP1 DUP2 MSTORE PUSH1 0x20 ADD PUSH0 KECCAK256 PUSH0 DUP5 PUSH20 0xFFFFFFFFFFFFFFFFFFFFFFFFFFFFFFFFFFFFFFFF AND PUSH20 0xFFFFFFFFFFFFFFFFFFFFFFFFFFFFFFFFFFFFFFFF AND DUP2 MSTORE PUSH1 0x20 ADD SWAP1 DUP2 MSTORE PUSH1 0x20 ADD PUSH0 KECCAK256 PUSH0 PUSH2 0x100 EXP DUP2 SLOAD DUP2 PUSH1 0xFF MUL NOT AND SWAP1 DUP4 ISZERO ISZERO MUL OR SWAP1 SSTORE POP DUP2 PUSH20 0xFFFFFFFFFFFFFFFFFFFFFFFFFFFFFFFFFFFFFFFF AND DUP4 PUSH20 0xFFFFFFFFFFFFFFFFFFFFFFFFFFFFFFFFFFFFFFFF AND PUSH32 0x17307EAB39AB6107E8899845AD3D59BD9653F200F220920489CA2B5937696C31 DUP4 PUSH1 0x40 MLOAD PUSH2 0x193D SWAP2 SWAP1 PUSH2 0x2330 JUMP JUMPDEST PUSH1 0x40 MLOAD DUP1 SWAP2 SUB SWAP1 LOG3 POP POP POP JUMP JUMPDEST PUSH0 DUP4 PUSH20 0xFFFFFFFFFFFFFFFFFFFFFFFFFFFFFFFFFFFFFFFF AND EXTCODESIZE GT ISZERO PUSH2 0x1AF6 JUMPI DUP3 PUSH20 0xFFFFFFFFFFFFFFFFFFFFFFFFFFFFFFFFFFFFFFFF AND PUSH4 0x150B7A02 PUSH2 0x198D PUSH2 0x13FC JUMP JUMPDEST DUP7 DUP6 DUP6 PUSH1 0x40 MLOAD DUP6 PUSH4 0xFFFFFFFF AND PUSH1 0xE0 SHL DUP2 MSTORE PUSH1 0x4 ADD PUSH2 0x19AF SWAP5 SWAP4 SWAP3 SWAP2 SWAP1 PUSH2 0x3136 JUMP JUMPDEST PUSH1 0x20 PUSH1 0x40 MLOAD DUP1 DUP4 SUB DUP2 PUSH0 DUP8 GAS CALL SWAP3 POP POP POP DUP1 ISZERO PUSH2 0x19EA JUMPI POP PUSH1 0x40 MLOAD RETURNDATASIZE PUSH1 0x1F NOT PUSH1 0x1F DUP3 ADD AND DUP3 ADD DUP1 PUSH1 0x40 MSTORE POP DUP2 ADD SWAP1 PUSH2 0x19E7 SWAP2 SWAP1 PUSH2 0x3194 JUMP JUMPDEST PUSH1 0x1 JUMPDEST PUSH2 0x1A6B JUMPI RETURNDATASIZE DUP1 PUSH0 DUP2 EQ PUSH2 0x1A18 JUMPI PUSH1 0x40 MLOAD SWAP2 POP PUSH1 0x1F NOT PUSH1 0x3F RETURNDATASIZE ADD AND DUP3 ADD PUSH1 0x40 MSTORE RETURNDATASIZE DUP3 MSTORE RETURNDATASIZE PUSH0 PUSH1 0x20 DUP5 ADD RETURNDATACOPY PUSH2 0x1A1D JUMP JUMPDEST PUSH1 0x60 SWAP2 POP JUMPDEST POP PUSH0 DUP2 MLOAD SUB PUSH2 0x1A63 JUMPI DUP4 PUSH1 0x40 MLOAD PUSH32 0x64A0AE9200000000000000000000000000000000000000000000000000000000 DUP2 MSTORE PUSH1 0x4 ADD PUSH2 0x1A5A SWAP2 SWAP1 PUSH2 0x2490 JUMP JUMPDEST PUSH1 0x40 MLOAD DUP1 SWAP2 SUB SWAP1 REVERT JUMPDEST DUP1 MLOAD DUP2 PUSH1 0x20 ADD REVERT JUMPDEST PUSH4 0x150B7A02 PUSH1 0xE0 SHL PUSH28 0xFFFFFFFFFFFFFFFFFFFFFFFFFFFFFFFFFFFFFFFFFFFFFFFFFFFFFFFF NOT AND DUP2 PUSH28 0xFFFFFFFFFFFFFFFFFFFFFFFFFFFFFFFFFFFFFFFFFFFFFFFFFFFFFFFF NOT AND EQ PUSH2 0x1AF4 JUMPI DUP4 PUSH1 0x40 MLOAD PUSH32 0x64A0AE9200000000000000000000000000000000000000000000000000000000 DUP2 MSTORE PUSH1 0x4 ADD PUSH2 0x1AEB SWAP2 SWAP1 PUSH2 0x2490 JUMP JUMPDEST PUSH1 0x40 MLOAD DUP1 SWAP2 SUB SWAP1 REVERT JUMPDEST POP JUMPDEST POP POP POP POP JUMP JUMPDEST PUSH1 0x60 PUSH1 0x40 MLOAD DUP1 PUSH1 0x20 ADD PUSH1 0x40 MSTORE DUP1 PUSH0 DUP2 MSTORE POP SWAP1 POP SWAP1 JUMP JUMPDEST PUSH1 0x60 PUSH2 0x1B1D DUP3 PUSH2 0x133D JUMP JUMPDEST POP PUSH0 PUSH2 0x1B27 PUSH2 0x1AFC JUMP JUMPDEST SWAP1 POP PUSH0 DUP2 MLOAD GT PUSH2 0x1B45 JUMPI PUSH1 0x40 MLOAD DUP1 PUSH1 0x20 ADD PUSH1 0x40 MSTORE DUP1 PUSH0 DUP2 MSTORE POP PUSH2 0x1B70 JUMP JUMPDEST DUP1 PUSH2 0x1B4F DUP5 PUSH2 0x1EB7 JUMP JUMPDEST PUSH1 0x40 MLOAD PUSH1 0x20 ADD PUSH2 0x1B60 SWAP3 SWAP2 SWAP1 PUSH2 0x3059 JUMP JUMPDEST PUSH1 0x40 MLOAD PUSH1 0x20 DUP2 DUP4 SUB SUB DUP2 MSTORE SWAP1 PUSH1 0x40 MSTORE JUMPDEST SWAP2 POP POP SWAP2 SWAP1 POP JUMP JUMPDEST PUSH0 PUSH32 0x1FFC9A700000000000000000000000000000000000000000000000000000000 PUSH28 0xFFFFFFFFFFFFFFFFFFFFFFFFFFFFFFFFFFFFFFFFFFFFFFFFFFFFFFFF NOT AND DUP3 PUSH28 0xFFFFFFFFFFFFFFFFFFFFFFFFFFFFFFFFFFFFFFFFFFFFFFFFFFFFFFFF NOT AND EQ SWAP1 POP SWAP2 SWAP1 POP JUMP JUMPDEST PUSH0 PUSH1 0x2 PUSH0 DUP4 DUP2 MSTORE PUSH1 0x20 ADD SWAP1 DUP2 MSTORE PUSH1 0x20 ADD PUSH0 KECCAK256 PUSH0 SWAP1 SLOAD SWAP1 PUSH2 0x100 EXP SWAP1 DIV PUSH20 0xFFFFFFFFFFFFFFFFFFFFFFFFFFFFFFFFFFFFFFFF AND SWAP1 POP SWAP2 SWAP1 POP JUMP JUMPDEST DUP1 DUP1 PUSH2 0x1C52 JUMPI POP PUSH0 PUSH20 0xFFFFFFFFFFFFFFFFFFFFFFFFFFFFFFFFFFFFFFFF AND DUP3 PUSH20 0xFFFFFFFFFFFFFFFFFFFFFFFFFFFFFFFFFFFFFFFF AND EQ ISZERO JUMPDEST ISZERO PUSH2 0x1D84 JUMPI PUSH0 PUSH2 0x1C61 DUP5 PUSH2 0x133D JUMP JUMPDEST SWAP1 POP PUSH0 PUSH20 0xFFFFFFFFFFFFFFFFFFFFFFFFFFFFFFFFFFFFFFFF AND DUP4 PUSH20 0xFFFFFFFFFFFFFFFFFFFFFFFFFFFFFFFFFFFFFFFF AND EQ ISZERO DUP1 ISZERO PUSH2 0x1CCB JUMPI POP DUP3 PUSH20 0xFFFFFFFFFFFFFFFFFFFFFFFFFFFFFFFFFFFFFFFF AND DUP2 PUSH20 0xFFFFFFFFFFFFFFFFFFFFFFFFFFFFFFFFFFFFFFFF AND EQ ISZERO JUMPDEST DUP1 ISZERO PUSH2 0x1CDE JUMPI POP PUSH2 0x1CDC DUP2 DUP5 PUSH2 0x114A JUMP JUMPDEST ISZERO JUMPDEST ISZERO PUSH2 0x1D20 JUMPI DUP3 PUSH1 0x40 MLOAD PUSH32 0xA9FBF51F00000000000000000000000000000000000000000000000000000000 DUP2 MSTORE PUSH1 0x4 ADD PUSH2 0x1D17 SWAP2 SWAP1 PUSH2 0x2490 JUMP JUMPDEST PUSH1 0x40 MLOAD DUP1 SWAP2 SUB SWAP1 REVERT JUMPDEST DUP2 ISZERO PUSH2 0x1D82 JUMPI DUP4 DUP6 PUSH20 0xFFFFFFFFFFFFFFFFFFFFFFFFFFFFFFFFFFFFFFFF AND DUP3 PUSH20 0xFFFFFFFFFFFFFFFFFFFFFFFFFFFFFFFFFFFFFFFF AND PUSH32 0x8C5BE1E5EBEC7D5BD14F71427D1E84F3DD0314C0F7B2291E5B200AC8C7C3B925 PUSH1 0x40 MLOAD PUSH1 0x40 MLOAD DUP1 SWAP2 SUB SWAP1 LOG4 JUMPDEST POP JUMPDEST DUP4 PUSH1 0x4 PUSH0 DUP6 DUP2 MSTORE PUSH1 0x20 ADD SWAP1 DUP2 MSTORE PUSH1 0x20 ADD PUSH0 KECCAK256 PUSH0 PUSH2 0x100 EXP DUP2 SLOAD DUP2 PUSH20 0xFFFFFFFFFFFFFFFFFFFFFFFFFFFFFFFFFFFFFFFF MUL NOT AND SWAP1 DUP4 PUSH20 0xFFFFFFFFFFFFFFFFFFFFFFFFFFFFFFFFFFFFFFFF AND MUL OR SWAP1 SSTORE POP POP POP POP POP JUMP JUMPDEST PUSH2 0x1DE4 DUP4 DUP4 DUP4 PUSH2 0x1F81 JUMP JUMPDEST PUSH2 0x1E97 JUMPI PUSH0 PUSH20 0xFFFFFFFFFFFFFFFFFFFFFFFFFFFFFFFFFFFFFFFF AND DUP4 PUSH20 0xFFFFFFFFFFFFFFFFFFFFFFFFFFFFFFFFFFFFFFFF AND SUB PUSH2 0x1E58 JUMPI DUP1 PUSH1 0x40 MLOAD PUSH32 0x7E27328900000000000000000000000000000000000000000000000000000000 DUP2 MSTORE PUSH1 0x4 ADD PUSH2 0x1E4F SWAP2 SWAP1 PUSH2 0x27D0 JUMP JUMPDEST PUSH1 0x40 MLOAD DUP1 SWAP2 SUB SWAP1 REVERT JUMPDEST DUP2 DUP2 PUSH1 0x40 MLOAD PUSH32 0x177E802F00000000000000000000000000000000000000000000000000000000 DUP2 MSTORE PUSH1 0x4 ADD PUSH2 0x1E8E SWAP3 SWAP2 SWAP1 PUSH2 0x31BF JUMP JUMPDEST PUSH1 0x40 MLOAD DUP1 SWAP2 SUB SWAP1 REVERT JUMPDEST POP POP POP JUMP JUMPDEST PUSH2 0x1EA6 DUP4 DUP4 PUSH2 0x2041 JUMP JUMPDEST PUSH2 0x1EB2 PUSH0 DUP5 DUP5 DUP5 PUSH2 0x194A JUMP JUMPDEST POP POP POP JUMP JUMPDEST PUSH1 0x60 PUSH0 PUSH1 0x1 PUSH2 0x1EC5 DUP5 PUSH2 0x2134 JUMP JUMPDEST ADD SWAP1 POP PUSH0 DUP2 PUSH8 0xFFFFFFFFFFFFFFFF DUP2 GT ISZERO PUSH2 0x1EE3 JUMPI PUSH2 0x1EE2 PUSH2 0x25D2 JUMP JUMPDEST JUMPDEST PUSH1 0x40 MLOAD SWAP1 DUP1 DUP3 MSTORE DUP1 PUSH1 0x1F ADD PUSH1 0x1F NOT AND PUSH1 0x20 ADD DUP3 ADD PUSH1 0x40 MSTORE DUP1 ISZERO PUSH2 0x1F15 JUMPI DUP2 PUSH1 0x20 ADD PUSH1 0x1 DUP3 MUL DUP1 CALLDATASIZE DUP4 CALLDATACOPY DUP1 DUP3 ADD SWAP2 POP POP SWAP1 POP JUMPDEST POP SWAP1 POP PUSH0 DUP3 PUSH1 0x20 ADD DUP3 ADD SWAP1 POP JUMPDEST PUSH1 0x1 ISZERO PUSH2 0x1F76 JUMPI DUP1 DUP1 PUSH1 0x1 SWAP1 SUB SWAP2 POP POP PUSH32 0x3031323334353637383961626364656600000000000000000000000000000000 PUSH1 0xA DUP7 MOD BYTE DUP2 MSTORE8 PUSH1 0xA DUP6 DUP2 PUSH2 0x1F6B JUMPI PUSH2 0x1F6A PUSH2 0x31E6 JUMP JUMPDEST JUMPDEST DIV SWAP5 POP PUSH0 DUP6 SUB PUSH2 0x1F22 JUMPI JUMPDEST DUP2 SWAP4 POP POP POP POP SWAP2 SWAP1 POP JUMP JUMPDEST PUSH0 DUP1 PUSH20 0xFFFFFFFFFFFFFFFFFFFFFFFFFFFFFFFFFFFFFFFF AND DUP4 PUSH20 0xFFFFFFFFFFFFFFFFFFFFFFFFFFFFFFFFFFFFFFFF AND EQ ISZERO DUP1 ISZERO PUSH2 0x2038 JUMPI POP DUP3 PUSH20 0xFFFFFFFFFFFFFFFFFFFFFFFFFFFFFFFFFFFFFFFF AND DUP5 PUSH20 0xFFFFFFFFFFFFFFFFFFFFFFFFFFFFFFFFFFFFFFFF AND EQ DUP1 PUSH2 0x1FF9 JUMPI POP PUSH2 0x1FF8 DUP5 DUP5 PUSH2 0x114A JUMP JUMPDEST JUMPDEST DUP1 PUSH2 0x2037 JUMPI POP DUP3 PUSH20 0xFFFFFFFFFFFFFFFFFFFFFFFFFFFFFFFFFFFFFFFF AND PUSH2 0x201F DUP4 PUSH2 0x13C3 JUMP JUMPDEST PUSH20 0xFFFFFFFFFFFFFFFFFFFFFFFFFFFFFFFFFFFFFFFF AND EQ JUMPDEST JUMPDEST SWAP1 POP SWAP4 SWAP3 POP POP POP JUMP JUMPDEST PUSH0 PUSH20 0xFFFFFFFFFFFFFFFFFFFFFFFFFFFFFFFFFFFFFFFF AND DUP3 PUSH20 0xFFFFFFFFFFFFFFFFFFFFFFFFFFFFFFFFFFFFFFFF AND SUB PUSH2 0x20B1 JUMPI PUSH0 PUSH1 0x40 MLOAD PUSH32 0x64A0AE9200000000000000000000000000000000000000000000000000000000 DUP2 MSTORE PUSH1 0x4 ADD PUSH2 0x20A8 SWAP2 SWAP1 PUSH2 0x2490 JUMP JUMPDEST PUSH1 0x40 MLOAD DUP1 SWAP2 SUB SWAP1 REVERT JUMPDEST PUSH0 PUSH2 0x20BD DUP4 DUP4 PUSH0 PUSH2 0x149C JUMP JUMPDEST SWAP1 POP PUSH0 PUSH20 0xFFFFFFFFFFFFFFFFFFFFFFFFFFFFFFFFFFFFFFFF AND DUP2 PUSH20 0xFFFFFFFFFFFFFFFFFFFFFFFFFFFFFFFFFFFFFFFF AND EQ PUSH2 0x212F JUMPI PUSH0 PUSH1 0x40 MLOAD PUSH32 0x73C6AC6E00000000000000000000000000000000000000000000000000000000 DUP2 MSTORE PUSH1 0x4 ADD PUSH2 0x2126 SWAP2 SWAP1 PUSH2 0x2490 JUMP JUMPDEST PUSH1 0x40 MLOAD DUP1 SWAP2 SUB SWAP1 REVERT JUMPDEST POP POP POP JUMP JUMPDEST PUSH0 DUP1 PUSH0 SWAP1 POP PUSH27 0x184F03E93FF9F4DAA797ED6E38ED64BF6A1F010000000000000000 DUP4 LT PUSH2 0x2190 JUMPI PUSH27 0x184F03E93FF9F4DAA797ED6E38ED64BF6A1F010000000000000000 DUP4 DUP2 PUSH2 0x2186 JUMPI PUSH2 0x2185 PUSH2 0x31E6 JUMP JUMPDEST JUMPDEST DIV SWAP3 POP PUSH1 0x40 DUP2 ADD SWAP1 POP JUMPDEST PUSH14 0x4EE2D6D415B85ACEF8100000000 DUP4 LT PUSH2 0x21CD JUMPI PUSH14 0x4EE2D6D415B85ACEF8100000000 DUP4 DUP2 PUSH2 0x21C3 JUMPI PUSH2 0x21C2 PUSH2 0x31E6 JUMP JUMPDEST JUMPDEST DIV SWAP3 POP PUSH1 0x20 DUP2 ADD SWAP1 POP JUMPDEST PUSH7 0x2386F26FC10000 DUP4 LT PUSH2 0x21FC JUMPI PUSH7 0x2386F26FC10000 DUP4 DUP2 PUSH2 0x21F2 JUMPI PUSH2 0x21F1 PUSH2 0x31E6 JUMP JUMPDEST JUMPDEST DIV SWAP3 POP PUSH1 0x10 DUP2 ADD SWAP1 POP JUMPDEST PUSH4 0x5F5E100 DUP4 LT PUSH2 0x2225 JUMPI PUSH4 0x5F5E100 DUP4 DUP2 PUSH2 0x221B JUMPI PUSH2 0x221A PUSH2 0x31E6 JUMP JUMPDEST JUMPDEST DIV SWAP3 POP PUSH1 0x8 DUP2 ADD SWAP1 POP JUMPDEST PUSH2 0x2710 DUP4 LT PUSH2 0x224A JUMPI PUSH2 0x2710 DUP4 DUP2 PUSH2 0x2240 JUMPI PUSH2 0x223F PUSH2 0x31E6 JUMP JUMPDEST JUMPDEST DIV SWAP3 POP PUSH1 0x4 DUP2 ADD SWAP1 POP JUMPDEST PUSH1 0x64 DUP4 LT PUSH2 0x226D JUMPI PUSH1 0x64 DUP4 DUP2 PUSH2 0x2263 JUMPI PUSH2 0x2262 PUSH2 0x31E6 JUMP JUMPDEST JUMPDEST DIV SWAP3 POP PUSH1 0x2 DUP2 ADD SWAP1 POP JUMPDEST PUSH1 0xA DUP4 LT PUSH2 0x227C JUMPI PUSH1 0x1 DUP2 ADD SWAP1 POP JUMPDEST DUP1 SWAP2 POP POP SWAP2 SWAP1 POP JUMP JUMPDEST PUSH0 PUSH1 0x40 MLOAD SWAP1 POP SWAP1 JUMP JUMPDEST PUSH0 DUP1 REVERT JUMPDEST PUSH0 DUP1 REVERT JUMPDEST PUSH0 PUSH32 0xFFFFFFFF00000000000000000000000000000000000000000000000000000000 DUP3 AND SWAP1 POP SWAP2 SWAP1 POP JUMP JUMPDEST PUSH2 0x22CA DUP2 PUSH2 0x2296 JUMP JUMPDEST DUP2 EQ PUSH2 0x22D4 JUMPI PUSH0 DUP1 REVERT JUMPDEST POP JUMP JUMPDEST PUSH0 DUP2 CALLDATALOAD SWAP1 POP PUSH2 0x22E5 DUP2 PUSH2 0x22C1 JUMP JUMPDEST SWAP3 SWAP2 POP POP JUMP JUMPDEST PUSH0 PUSH1 0x20 DUP3 DUP5 SUB SLT ISZERO PUSH2 0x2300 JUMPI PUSH2 0x22FF PUSH2 0x228E JUMP JUMPDEST JUMPDEST PUSH0 PUSH2 0x230D DUP5 DUP3 DUP6 ADD PUSH2 0x22D7 JUMP JUMPDEST SWAP2 POP POP SWAP3 SWAP2 POP POP JUMP JUMPDEST PUSH0 DUP2 ISZERO ISZERO SWAP1 POP SWAP2 SWAP1 POP JUMP JUMPDEST PUSH2 0x232A DUP2 PUSH2 0x2316 JUMP JUMPDEST DUP3 MSTORE POP POP JUMP JUMPDEST PUSH0 PUSH1 0x20 DUP3 ADD SWAP1 POP PUSH2 0x2343 PUSH0 DUP4 ADD DUP5 PUSH2 0x2321 JUMP JUMPDEST SWAP3 SWAP2 POP POP JUMP JUMPDEST PUSH0 DUP2 MLOAD SWAP1 POP SWAP2 SWAP1 POP JUMP JUMPDEST PUSH0 DUP3 DUP3 MSTORE PUSH1 0x20 DUP3 ADD SWAP1 POP SWAP3 SWAP2 POP POP JUMP JUMPDEST PUSH0 JUMPDEST DUP4 DUP2 LT ISZERO PUSH2 0x2380 JUMPI DUP1 DUP3 ADD MLOAD DUP2 DUP5 ADD MSTORE PUSH1 0x20 DUP2 ADD SWAP1 POP PUSH2 0x2365 JUMP JUMPDEST PUSH0 DUP5 DUP5 ADD MSTORE POP POP POP POP JUMP JUMPDEST PUSH0 PUSH1 0x1F NOT PUSH1 0x1F DUP4 ADD AND SWAP1 POP SWAP2 SWAP1 POP JUMP JUMPDEST PUSH0 PUSH2 0x23A5 DUP3 PUSH2 0x2349 JUMP JUMPDEST PUSH2 0x23AF DUP2 DUP6 PUSH2 0x2353 JUMP JUMPDEST SWAP4 POP PUSH2 0x23BF DUP2 DUP6 PUSH1 0x20 DUP7 ADD PUSH2 0x2363 JUMP JUMPDEST PUSH2 0x23C8 DUP2 PUSH2 0x238B JUMP JUMPDEST DUP5 ADD SWAP2 POP POP SWAP3 SWAP2 POP POP JUMP JUMPDEST PUSH0 PUSH1 0x20 DUP3 ADD SWAP1 POP DUP2 DUP2 SUB PUSH0 DUP4 ADD MSTORE PUSH2 0x23EB DUP2 DUP5 PUSH2 0x239B JUMP JUMPDEST SWAP1 POP SWAP3 SWAP2 POP POP JUMP JUMPDEST PUSH0 DUP2 SWAP1 POP SWAP2 SWAP1 POP JUMP JUMPDEST PUSH2 0x2405 DUP2 PUSH2 0x23F3 JUMP JUMPDEST DUP2 EQ PUSH2 0x240F JUMPI PUSH0 DUP1 REVERT JUMPDEST POP JUMP JUMPDEST PUSH0 DUP2 CALLDATALOAD SWAP1 POP PUSH2 0x2420 DUP2 PUSH2 0x23FC JUMP JUMPDEST SWAP3 SWAP2 POP POP JUMP JUMPDEST PUSH0 PUSH1 0x20 DUP3 DUP5 SUB SLT ISZERO PUSH2 0x243B JUMPI PUSH2 0x243A PUSH2 0x228E JUMP JUMPDEST JUMPDEST PUSH0 PUSH2 0x2448 DUP5 DUP3 DUP6 ADD PUSH2 0x2412 JUMP JUMPDEST SWAP2 POP POP SWAP3 SWAP2 POP POP JUMP JUMPDEST PUSH0 PUSH20 0xFFFFFFFFFFFFFFFFFFFFFFFFFFFFFFFFFFFFFFFF DUP3 AND SWAP1 POP SWAP2 SWAP1 POP JUMP JUMPDEST PUSH0 PUSH2 0x247A DUP3 PUSH2 0x2451 JUMP JUMPDEST SWAP1 POP SWAP2 SWAP1 POP JUMP JUMPDEST PUSH2 0x248A DUP2 PUSH2 0x2470 JUMP JUMPDEST DUP3 MSTORE POP POP JUMP JUMPDEST PUSH0 PUSH1 0x20 DUP3 ADD SWAP1 POP PUSH2 0x24A3 PUSH0 DUP4 ADD DUP5 PUSH2 0x2481 JUMP JUMPDEST SWAP3 SWAP2 POP POP JUMP JUMPDEST PUSH2 0x24B2 DUP2 PUSH2 0x2470 JUMP JUMPDEST DUP2 EQ PUSH2 0x24BC JUMPI PUSH0 DUP1 REVERT JUMPDEST POP JUMP JUMPDEST PUSH0 DUP2 CALLDATALOAD SWAP1 POP PUSH2 0x24CD DUP2 PUSH2 0x24A9 JUMP JUMPDEST SWAP3 SWAP2 POP POP JUMP JUMPDEST PUSH0 DUP1 PUSH1 0x40 DUP4 DUP6 SUB SLT ISZERO PUSH2 0x24E9 JUMPI PUSH2 0x24E8 PUSH2 0x228E JUMP JUMPDEST JUMPDEST PUSH0 PUSH2 0x24F6 DUP6 DUP3 DUP7 ADD PUSH2 0x24BF JUMP JUMPDEST SWAP3 POP POP PUSH1 0x20 PUSH2 0x2507 DUP6 DUP3 DUP7 ADD PUSH2 0x2412 JUMP JUMPDEST SWAP2 POP POP SWAP3 POP SWAP3 SWAP1 POP JUMP JUMPDEST PUSH0 DUP1 PUSH1 0x40 DUP4 DUP6 SUB SLT ISZERO PUSH2 0x2527 JUMPI PUSH2 0x2526 PUSH2 0x228E JUMP JUMPDEST JUMPDEST PUSH0 PUSH2 0x2534 DUP6 DUP3 DUP7 ADD PUSH2 0x2412 JUMP JUMPDEST SWAP3 POP POP PUSH1 0x20 PUSH2 0x2545 DUP6 DUP3 DUP7 ADD PUSH2 0x2412 JUMP JUMPDEST SWAP2 POP POP SWAP3 POP SWAP3 SWAP1 POP JUMP JUMPDEST PUSH0 DUP1 PUSH0 PUSH1 0x60 DUP5 DUP7 SUB SLT ISZERO PUSH2 0x2566 JUMPI PUSH2 0x2565 PUSH2 0x228E JUMP JUMPDEST JUMPDEST PUSH0 PUSH2 0x2573 DUP7 DUP3 DUP8 ADD PUSH2 0x24BF JUMP JUMPDEST SWAP4 POP POP PUSH1 0x20 PUSH2 0x2584 DUP7 DUP3 DUP8 ADD PUSH2 0x24BF JUMP JUMPDEST SWAP3 POP POP PUSH1 0x40 PUSH2 0x2595 DUP7 DUP3 DUP8 ADD PUSH2 0x2412 JUMP JUMPDEST SWAP2 POP POP SWAP3 POP SWAP3 POP SWAP3 JUMP JUMPDEST PUSH0 PUSH1 0x20 DUP3 DUP5 SUB SLT ISZERO PUSH2 0x25B4 JUMPI PUSH2 0x25B3 PUSH2 0x228E JUMP JUMPDEST JUMPDEST PUSH0 PUSH2 0x25C1 DUP5 DUP3 DUP6 ADD PUSH2 0x24BF JUMP JUMPDEST SWAP2 POP POP SWAP3 SWAP2 POP POP JUMP JUMPDEST PUSH0 DUP1 REVERT JUMPDEST PUSH0 DUP1 REVERT JUMPDEST PUSH32 0x4E487B7100000000000000000000000000000000000000000000000000000000 PUSH0 MSTORE PUSH1 0x41 PUSH1 0x4 MSTORE PUSH1 0x24 PUSH0 REVERT JUMPDEST PUSH2 0x2608 DUP3 PUSH2 0x238B JUMP JUMPDEST DUP2 ADD DUP2 DUP2 LT PUSH8 0xFFFFFFFFFFFFFFFF DUP3 GT OR ISZERO PUSH2 0x2627 JUMPI PUSH2 0x2626 PUSH2 0x25D2 JUMP JUMPDEST JUMPDEST DUP1 PUSH1 0x40 MSTORE POP POP POP JUMP JUMPDEST PUSH0 PUSH2 0x2639 PUSH2 0x2285 JUMP JUMPDEST SWAP1 POP PUSH2 0x2645 DUP3 DUP3 PUSH2 0x25FF JUMP JUMPDEST SWAP2 SWAP1 POP JUMP JUMPDEST PUSH0 PUSH8 0xFFFFFFFFFFFFFFFF DUP3 GT ISZERO PUSH2 0x2664 JUMPI PUSH2 0x2663 PUSH2 0x25D2 JUMP JUMPDEST JUMPDEST PUSH2 0x266D DUP3 PUSH2 0x238B JUMP JUMPDEST SWAP1 POP PUSH1 0x20 DUP2 ADD SWAP1 POP SWAP2 SWAP1 POP JUMP JUMPDEST DUP3 DUP2 DUP4 CALLDATACOPY PUSH0 DUP4 DUP4 ADD MSTORE POP POP POP JUMP JUMPDEST PUSH0 PUSH2 0x269A PUSH2 0x2695 DUP5 PUSH2 0x264A JUMP JUMPDEST PUSH2 0x2630 JUMP JUMPDEST SWAP1 POP DUP3 DUP2 MSTORE PUSH1 0x20 DUP2 ADD DUP5 DUP5 DUP5 ADD GT ISZERO PUSH2 0x26B6 JUMPI PUSH2 0x26B5 PUSH2 0x25CE JUMP JUMPDEST JUMPDEST PUSH2 0x26C1 DUP5 DUP3 DUP6 PUSH2 0x267A JUMP JUMPDEST POP SWAP4 SWAP3 POP POP POP JUMP JUMPDEST PUSH0 DUP3 PUSH1 0x1F DUP4 ADD SLT PUSH2 0x26DD JUMPI PUSH2 0x26DC PUSH2 0x25CA JUMP JUMPDEST JUMPDEST DUP2 CALLDATALOAD PUSH2 0x26ED DUP5 DUP3 PUSH1 0x20 DUP7 ADD PUSH2 0x2688 JUMP JUMPDEST SWAP2 POP POP SWAP3 SWAP2 POP POP JUMP JUMPDEST PUSH0 DUP1 PUSH0 DUP1 PUSH0 PUSH1 0xA0 DUP7 DUP9 SUB SLT ISZERO PUSH2 0x270F JUMPI PUSH2 0x270E PUSH2 0x228E JUMP JUMPDEST JUMPDEST PUSH0 PUSH2 0x271C DUP9 DUP3 DUP10 ADD PUSH2 0x24BF JUMP JUMPDEST SWAP6 POP POP PUSH1 0x20 DUP7 ADD CALLDATALOAD PUSH8 0xFFFFFFFFFFFFFFFF DUP2 GT ISZERO PUSH2 0x273D JUMPI PUSH2 0x273C PUSH2 0x2292 JUMP JUMPDEST JUMPDEST PUSH2 0x2749 DUP9 DUP3 DUP10 ADD PUSH2 0x26C9 JUMP JUMPDEST SWAP5 POP POP PUSH1 0x40 DUP7 ADD CALLDATALOAD PUSH8 0xFFFFFFFFFFFFFFFF DUP2 GT ISZERO PUSH2 0x276A JUMPI PUSH2 0x2769 PUSH2 0x2292 JUMP JUMPDEST JUMPDEST PUSH2 0x2776 DUP9 DUP3 DUP10 ADD PUSH2 0x26C9 JUMP JUMPDEST SWAP4 POP POP PUSH1 0x60 PUSH2 0x2787 DUP9 DUP3 DUP10 ADD PUSH2 0x2412 JUMP JUMPDEST SWAP3 POP POP PUSH1 0x80 DUP7 ADD CALLDATALOAD PUSH8 0xFFFFFFFFFFFFFFFF DUP2 GT ISZERO PUSH2 0x27A8 JUMPI PUSH2 0x27A7 PUSH2 0x2292 JUMP JUMPDEST JUMPDEST PUSH2 0x27B4 DUP9 DUP3 DUP10 ADD PUSH2 0x26C9 JUMP JUMPDEST SWAP2 POP POP SWAP3 SWAP6 POP SWAP3 SWAP6 SWAP1 SWAP4 POP JUMP JUMPDEST PUSH2 0x27CA DUP2 PUSH2 0x23F3 JUMP JUMPDEST DUP3 MSTORE POP POP JUMP JUMPDEST PUSH0 PUSH1 0x20 DUP3 ADD SWAP1 POP PUSH2 0x27E3 PUSH0 DUP4 ADD DUP5 PUSH2 0x27C1 JUMP JUMPDEST SWAP3 SWAP2 POP POP JUMP JUMPDEST PUSH2 0x27F2 DUP2 PUSH2 0x2316 JUMP JUMPDEST DUP2 EQ PUSH2 0x27FC JUMPI PUSH0 DUP1 REVERT JUMPDEST POP JUMP JUMPDEST PUSH0 DUP2 CALLDATALOAD SWAP1 POP PUSH2 0x280D DUP2 PUSH2 0x27E9 JUMP JUMPDEST SWAP3 SWAP2 POP POP JUMP JUMPDEST PUSH0 DUP1 PUSH1 0x40 DUP4 DUP6 SUB SLT ISZERO PUSH2 0x2829 JUMPI PUSH2 0x2828 PUSH2 0x228E JUMP JUMPDEST JUMPDEST PUSH0 PUSH2 0x2836 DUP6 DUP3 DUP7 ADD PUSH2 0x24BF JUMP JUMPDEST SWAP3 POP POP PUSH1 0x20 PUSH2 0x2847 DUP6 DUP3 DUP7 ADD PUSH2 0x27FF JUMP JUMPDEST SWAP2 POP POP SWAP3 POP SWAP3 SWAP1 POP JUMP JUMPDEST PUSH0 PUSH8 0xFFFFFFFFFFFFFFFF DUP3 GT ISZERO PUSH2 0x286B JUMPI PUSH2 0x286A PUSH2 0x25D2 JUMP JUMPDEST JUMPDEST PUSH2 0x2874 DUP3 PUSH2 0x238B JUMP JUMPDEST SWAP1 POP PUSH1 0x20 DUP2 ADD SWAP1 POP SWAP2 SWAP1 POP JUMP JUMPDEST PUSH0 PUSH2 0x2893 PUSH2 0x288E DUP5 PUSH2 0x2851 JUMP JUMPDEST PUSH2 0x2630 JUMP JUMPDEST SWAP1 POP DUP3 DUP2 MSTORE PUSH1 0x20 DUP2 ADD DUP5 DUP5 DUP5 ADD GT ISZERO PUSH2 0x28AF JUMPI PUSH2 0x28AE PUSH2 0x25CE JUMP JUMPDEST JUMPDEST PUSH2 0x28BA DUP5 DUP3 DUP6 PUSH2 0x267A JUMP JUMPDEST POP SWAP4 SWAP3 POP POP POP JUMP JUMPDEST PUSH0 DUP3 PUSH1 0x1F DUP4 ADD SLT PUSH2 0x28D6 JUMPI PUSH2 0x28D5 PUSH2 0x25CA JUMP JUMPDEST JUMPDEST DUP2 CALLDATALOAD PUSH2 0x28E6 DUP5 DUP3 PUSH1 0x20 DUP7 ADD PUSH2 0x2881 JUMP JUMPDEST SWAP2 POP POP SWAP3 SWAP2 POP POP JUMP JUMPDEST PUSH0 DUP1 PUSH0 DUP1 PUSH1 0x80 DUP6 DUP8 SUB SLT ISZERO PUSH2 0x2907 JUMPI PUSH2 0x2906 PUSH2 0x228E JUMP JUMPDEST JUMPDEST PUSH0 PUSH2 0x2914 DUP8 DUP3 DUP9 ADD PUSH2 0x24BF JUMP JUMPDEST SWAP5 POP POP PUSH1 0x20 PUSH2 0x2925 DUP8 DUP3 DUP9 ADD PUSH2 0x24BF JUMP JUMPDEST SWAP4 POP POP PUSH1 0x40 PUSH2 0x2936 DUP8 DUP3 DUP9 ADD PUSH2 0x2412 JUMP JUMPDEST SWAP3 POP POP PUSH1 0x60 DUP6 ADD CALLDATALOAD PUSH8 0xFFFFFFFFFFFFFFFF DUP2 GT ISZERO PUSH2 0x2957 JUMPI PUSH2 0x2956 PUSH2 0x2292 JUMP JUMPDEST JUMPDEST PUSH2 0x2963 DUP8 DUP3 DUP9 ADD PUSH2 0x28C2 JUMP JUMPDEST SWAP2 POP POP SWAP3 SWAP6 SWAP2 SWAP5 POP SWAP3 POP JUMP JUMPDEST PUSH32 0x4E487B7100000000000000000000000000000000000000000000000000000000 PUSH0 MSTORE PUSH1 0x21 PUSH1 0x4 MSTORE PUSH1 0x24 PUSH0 REVERT JUMPDEST PUSH1 0x3 DUP2 LT PUSH2 0x29AD JUMPI PUSH2 0x29AC PUSH2 0x296F JUMP JUMPDEST JUMPDEST POP JUMP JUMPDEST PUSH0 DUP2 SWAP1 POP PUSH2 0x29BD DUP3 PUSH2 0x299C JUMP JUMPDEST SWAP2 SWAP1 POP JUMP JUMPDEST PUSH0 PUSH2 0x29CC DUP3 PUSH2 0x29B0 JUMP JUMPDEST SWAP1 POP SWAP2 SWAP1 POP JUMP JUMPDEST PUSH2 0x29DC DUP2 PUSH2 0x29C2 JUMP JUMPDEST DUP3 MSTORE POP POP JUMP JUMPDEST PUSH0 PUSH1 0xA0 DUP3 ADD SWAP1 POP DUP2 DUP2 SUB PUSH0 DUP4 ADD MSTORE PUSH2 0x29FA DUP2 DUP9 PUSH2 0x239B JUMP JUMPDEST SWAP1 POP PUSH2 0x2A09 PUSH1 0x20 DUP4 ADD DUP8 PUSH2 0x27C1 JUMP JUMPDEST DUP2 DUP2 SUB PUSH1 0x40 DUP4 ADD MSTORE PUSH2 0x2A1B DUP2 DUP7 PUSH2 0x239B JUMP JUMPDEST SWAP1 POP PUSH2 0x2A2A PUSH1 0x60 DUP4 ADD DUP6 PUSH2 0x29D3 JUMP JUMPDEST PUSH2 0x2A37 PUSH1 0x80 DUP4 ADD DUP5 PUSH2 0x27C1 JUMP JUMPDEST SWAP7 SWAP6 POP POP POP POP POP POP JUMP JUMPDEST PUSH0 DUP1 PUSH1 0x40 DUP4 DUP6 SUB SLT ISZERO PUSH2 0x2A57 JUMPI PUSH2 0x2A56 PUSH2 0x228E JUMP JUMPDEST JUMPDEST PUSH0 PUSH2 0x2A64 DUP6 DUP3 DUP7 ADD PUSH2 0x24BF JUMP JUMPDEST SWAP3 POP POP PUSH1 0x20 PUSH2 0x2A75 DUP6 DUP3 DUP7 ADD PUSH2 0x24BF JUMP JUMPDEST SWAP2 POP POP SWAP3 POP SWAP3 SWAP1 POP JUMP JUMPDEST PUSH32 0x4E487B7100000000000000000000000000000000000000000000000000000000 PUSH0 MSTORE PUSH1 0x22 PUSH1 0x4 MSTORE PUSH1 0x24 PUSH0 REVERT JUMPDEST PUSH0 PUSH1 0x2 DUP3 DIV SWAP1 POP PUSH1 0x1 DUP3 AND DUP1 PUSH2 0x2AC3 JUMPI PUSH1 0x7F DUP3 AND SWAP2 POP JUMPDEST PUSH1 0x20 DUP3 LT DUP2 SUB PUSH2 0x2AD6 JUMPI PUSH2 0x2AD5 PUSH2 0x2A7F JUMP JUMPDEST JUMPDEST POP SWAP2 SWAP1 POP JUMP JUMPDEST PUSH32 0x546F6B656E20646F6573206E6F74206578697374000000000000000000000000 PUSH0 DUP3 ADD MSTORE POP JUMP JUMPDEST PUSH0 PUSH2 0x2B10 PUSH1 0x14 DUP4 PUSH2 0x2353 JUMP JUMPDEST SWAP2 POP PUSH2 0x2B1B DUP3 PUSH2 0x2ADC JUMP JUMPDEST PUSH1 0x20 DUP3 ADD SWAP1 POP SWAP2 SWAP1 POP JUMP JUMPDEST PUSH0 PUSH1 0x20 DUP3 ADD SWAP1 POP DUP2 DUP2 SUB PUSH0 DUP4 ADD MSTORE PUSH2 0x2B3D DUP2 PUSH2 0x2B04 JUMP JUMPDEST SWAP1 POP SWAP2 SWAP1 POP JUMP JUMPDEST PUSH0 PUSH1 0x60 DUP3 ADD SWAP1 POP PUSH2 0x2B57 PUSH0 DUP4 ADD DUP7 PUSH2 0x2481 JUMP JUMPDEST PUSH2 0x2B64 PUSH1 0x20 DUP4 ADD DUP6 PUSH2 0x27C1 JUMP JUMPDEST PUSH2 0x2B71 PUSH1 0x40 DUP4 ADD DUP5 PUSH2 0x2481 JUMP JUMPDEST SWAP5 SWAP4 POP POP POP POP JUMP JUMPDEST PUSH32 0x566572696669657220616464726573732063616E6E6F74206265207A65726F00 PUSH0 DUP3 ADD MSTORE POP JUMP JUMPDEST PUSH0 PUSH2 0x2BAD PUSH1 0x1F DUP4 PUSH2 0x2353 JUMP JUMPDEST SWAP2 POP PUSH2 0x2BB8 DUP3 PUSH2 0x2B79 JUMP JUMPDEST PUSH1 0x20 DUP3 ADD SWAP1 POP SWAP2 SWAP1 POP JUMP JUMPDEST PUSH0 PUSH1 0x20 DUP3 ADD SWAP1 POP DUP2 DUP2 SUB PUSH0 DUP4 ADD MSTORE PUSH2 0x2BDA DUP2 PUSH2 0x2BA1 JUMP JUMPDEST SWAP1 POP SWAP2 SWAP1 POP JUMP JUMPDEST PUSH32 0x43616C6C6572206973206E6F7420746865207665726966696572000000000000 PUSH0 DUP3 ADD MSTORE POP JUMP JUMPDEST PUSH0 PUSH2 0x2C15 PUSH1 0x1A DUP4 PUSH2 0x2353 JUMP JUMPDEST SWAP2 POP PUSH2 0x2C20 DUP3 PUSH2 0x2BE1 JUMP JUMPDEST PUSH1 0x20 DUP3 ADD SWAP1 POP SWAP2 SWAP1 POP JUMP JUMPDEST PUSH0 PUSH1 0x20 DUP3 ADD SWAP1 POP DUP2 DUP2 SUB PUSH0 DUP4 ADD MSTORE PUSH2 0x2C42 DUP2 PUSH2 0x2C09 JUMP JUMPDEST SWAP1 POP SWAP2 SWAP1 POP JUMP JUMPDEST PUSH32 0x4173736574206973206E6F742070656E64696E6720766572696669636174696F PUSH0 DUP3 ADD MSTORE PUSH32 0x6E00000000000000000000000000000000000000000000000000000000000000 PUSH1 0x20 DUP3 ADD MSTORE POP JUMP JUMPDEST PUSH0 PUSH2 0x2CA3 PUSH1 0x21 DUP4 PUSH2 0x2353 JUMP JUMPDEST SWAP2 POP PUSH2 0x2CAE DUP3 PUSH2 0x2C49 JUMP JUMPDEST PUSH1 0x40 DUP3 ADD SWAP1 POP SWAP2 SWAP1 POP JUMP JUMPDEST PUSH0 PUSH1 0x20 DUP3 ADD SWAP1 POP DUP2 DUP2 SUB PUSH0 DUP4 ADD MSTORE PUSH2 0x2CD0 DUP2 PUSH2 0x2C97 JUMP JUMPDEST SWAP1 POP SWAP2 SWAP1 POP JUMP JUMPDEST PUSH32 0x4F776E657220616464726573732063616E6E6F74206265207A65726F00000000 PUSH0 DUP3 ADD MSTORE POP JUMP JUMPDEST PUSH0 PUSH2 0x2D0B PUSH1 0x1C DUP4 PUSH2 0x2353 JUMP JUMPDEST SWAP2 POP PUSH2 0x2D16 DUP3 PUSH2 0x2CD7 JUMP JUMPDEST PUSH1 0x20 DUP3 ADD SWAP1 POP SWAP2 SWAP1 POP JUMP JUMPDEST PUSH0 PUSH1 0x20 DUP3 ADD SWAP1 POP DUP2 DUP2 SUB PUSH0 DUP4 ADD MSTORE PUSH2 0x2D38 DUP2 PUSH2 0x2CFF JUMP JUMPDEST SWAP1 POP SWAP2 SWAP1 POP JUMP JUMPDEST PUSH32 0x4E487B7100000000000000000000000000000000000000000000000000000000 PUSH0 MSTORE PUSH1 0x11 PUSH1 0x4 MSTORE PUSH1 0x24 PUSH0 REVERT JUMPDEST PUSH0 PUSH2 0x2D76 DUP3 PUSH2 0x23F3 JUMP JUMPDEST SWAP2 POP PUSH32 0xFFFFFFFFFFFFFFFFFFFFFFFFFFFFFFFFFFFFFFFFFFFFFFFFFFFFFFFFFFFFFFFF DUP3 SUB PUSH2 0x2DA8 JUMPI PUSH2 0x2DA7 PUSH2 0x2D3F JUMP JUMPDEST JUMPDEST PUSH1 0x1 DUP3 ADD SWAP1 POP SWAP2 SWAP1 POP JUMP JUMPDEST PUSH0 DUP2 SWAP1 POP DUP2 PUSH0 MSTORE PUSH1 0x20 PUSH0 KECCAK256 SWAP1 POP SWAP2 SWAP1 POP JUMP JUMPDEST PUSH0 PUSH1 0x20 PUSH1 0x1F DUP4 ADD DIV SWAP1 POP SWAP2 SWAP1 POP JUMP JUMPDEST PUSH0 DUP3 DUP3 SHL SWAP1 POP SWAP3 SWAP2 POP POP JUMP JUMPDEST PUSH0 PUSH1 0x8 DUP4 MUL PUSH2 0x2E0F PUSH32 0xFFFFFFFFFFFFFFFFFFFFFFFFFFFFFFFFFFFFFFFFFFFFFFFFFFFFFFFFFFFFFFFF DUP3 PUSH2 0x2DD4 JUMP JUMPDEST PUSH2 0x2E19 DUP7 DUP4 PUSH2 0x2DD4 JUMP JUMPDEST SWAP6 POP DUP1 NOT DUP5 AND SWAP4 POP DUP1 DUP7 AND DUP5 OR SWAP3 POP POP POP SWAP4 SWAP3 POP POP POP JUMP JUMPDEST PUSH0 DUP2 SWAP1 POP SWAP2 SWAP1 POP JUMP JUMPDEST PUSH0 PUSH2 0x2E54 PUSH2 0x2E4F PUSH2 0x2E4A DUP5 PUSH2 0x23F3 JUMP JUMPDEST PUSH2 0x2E31 JUMP JUMPDEST PUSH2 0x23F3 JUMP JUMPDEST SWAP1 POP SWAP2 SWAP1 POP JUMP JUMPDEST PUSH0 DUP2 SWAP1 POP SWAP2 SWAP1 POP JUMP JUMPDEST PUSH2 0x2E6D DUP4 PUSH2 0x2E3A JUMP JUMPDEST PUSH2 0x2E81 PUSH2 0x2E79 DUP3 PUSH2 0x2E5B JUMP JUMPDEST DUP5 DUP5 SLOAD PUSH2 0x2DE0 JUMP JUMPDEST DUP3 SSTORE POP POP POP POP JUMP JUMPDEST PUSH0 SWAP1 JUMP JUMPDEST PUSH2 0x2E95 PUSH2 0x2E89 JUMP JUMPDEST PUSH2 0x2EA0 DUP2 DUP5 DUP5 PUSH2 0x2E64 JUMP JUMPDEST POP POP POP JUMP JUMPDEST JUMPDEST DUP2 DUP2 LT ISZERO PUSH2 0x2EC3 JUMPI PUSH2 0x2EB8 PUSH0 DUP3 PUSH2 0x2E8D JUMP JUMPDEST PUSH1 0x1 DUP2 ADD SWAP1 POP PUSH2 0x2EA6 JUMP JUMPDEST POP POP JUMP JUMPDEST PUSH1 0x1F DUP3 GT ISZERO PUSH2 0x2F08 JUMPI PUSH2 0x2ED9 DUP2 PUSH2 0x2DB3 JUMP JUMPDEST PUSH2 0x2EE2 DUP5 PUSH2 0x2DC5 JUMP JUMPDEST DUP2 ADD PUSH1 0x20 DUP6 LT ISZERO PUSH2 0x2EF1 JUMPI DUP2 SWAP1 POP JUMPDEST PUSH2 0x2F05 PUSH2 0x2EFD DUP6 PUSH2 0x2DC5 JUMP JUMPDEST DUP4 ADD DUP3 PUSH2 0x2EA5 JUMP JUMPDEST POP POP JUMPDEST POP POP POP JUMP JUMPDEST PUSH0 DUP3 DUP3 SHR SWAP1 POP SWAP3 SWAP2 POP POP JUMP JUMPDEST PUSH0 PUSH2 0x2F28 PUSH0 NOT DUP5 PUSH1 0x8 MUL PUSH2 0x2F0D JUMP JUMPDEST NOT DUP1 DUP4 AND SWAP2 POP POP SWAP3 SWAP2 POP POP JUMP JUMPDEST PUSH0 PUSH2 0x2F40 DUP4 DUP4 PUSH2 0x2F19 JUMP JUMPDEST SWAP2 POP DUP3 PUSH1 0x2 MUL DUP3 OR SWAP1 POP SWAP3 SWAP2 POP POP JUMP JUMPDEST PUSH2 0x2F59 DUP3 PUSH2 0x2349 JUMP JUMPDEST PUSH8 0xFFFFFFFFFFFFFFFF DUP2 GT ISZERO PUSH2 0x2F72 JUMPI PUSH2 0x2F71 PUSH2 0x25D2 JUMP JUMPDEST JUMPDEST PUSH2 0x2F7C DUP3 SLOAD PUSH2 0x2AAC JUMP JUMPDEST PUSH2 0x2F87 DUP3 DUP3 DUP6 PUSH2 0x2EC7 JUMP JUMPDEST PUSH0 PUSH1 0x20 SWAP1 POP PUSH1 0x1F DUP4 GT PUSH1 0x1 DUP2 EQ PUSH2 0x2FB8 JUMPI PUSH0 DUP5 ISZERO PUSH2 0x2FA6 JUMPI DUP3 DUP8 ADD MLOAD SWAP1 POP JUMPDEST PUSH2 0x2FB0 DUP6 DUP3 PUSH2 0x2F35 JUMP JUMPDEST DUP7 SSTORE POP PUSH2 0x3017 JUMP JUMPDEST PUSH1 0x1F NOT DUP5 AND PUSH2 0x2FC6 DUP7 PUSH2 0x2DB3 JUMP JUMPDEST PUSH0 JUMPDEST DUP3 DUP2 LT ISZERO PUSH2 0x2FED JUMPI DUP5 DUP10 ADD MLOAD DUP3 SSTORE PUSH1 0x1 DUP3 ADD SWAP2 POP PUSH1 0x20 DUP6 ADD SWAP5 POP PUSH1 0x20 DUP2 ADD SWAP1 POP PUSH2 0x2FC8 JUMP JUMPDEST DUP7 DUP4 LT ISZERO PUSH2 0x300A JUMPI DUP5 DUP10 ADD MLOAD PUSH2 0x3006 PUSH1 0x1F DUP10 AND DUP3 PUSH2 0x2F19 JUMP JUMPDEST DUP4 SSTORE POP JUMPDEST PUSH1 0x1 PUSH1 0x2 DUP9 MUL ADD DUP9 SSTORE POP POP POP JUMPDEST POP POP POP POP POP POP JUMP JUMPDEST PUSH0 DUP2 SWAP1 POP SWAP3 SWAP2 POP POP JUMP JUMPDEST PUSH0 PUSH2 0x3033 DUP3 PUSH2 0x2349 JUMP JUMPDEST PUSH2 0x303D DUP2 DUP6 PUSH2 0x301F JUMP JUMPDEST SWAP4 POP PUSH2 0x304D DUP2 DUP6 PUSH1 0x20 DUP7 ADD PUSH2 0x2363 JUMP JUMPDEST DUP1 DUP5 ADD SWAP2 POP POP SWAP3 SWAP2 POP POP JUMP JUMPDEST PUSH0 PUSH2 0x3064 DUP3 DUP6 PUSH2 0x3029 JUMP JUMPDEST SWAP2 POP PUSH2 0x3070 DUP3 DUP5 PUSH2 0x3029 JUMP JUMPDEST SWAP2 POP DUP2 SWAP1 POP SWAP4 SWAP3 POP POP POP JUMP JUMPDEST PUSH32 0x4173736574206973206E6F742061637469766500000000000000000000000000 PUSH0 DUP3 ADD MSTORE POP JUMP JUMPDEST PUSH0 PUSH2 0x30B0 PUSH1 0x13 DUP4 PUSH2 0x2353 JUMP JUMPDEST SWAP2 POP PUSH2 0x30BB DUP3 PUSH2 0x307C JUMP JUMPDEST PUSH1 0x20 DUP3 ADD SWAP1 POP SWAP2 SWAP1 POP JUMP JUMPDEST PUSH0 PUSH1 0x20 DUP3 ADD SWAP1 POP DUP2 DUP2 SUB PUSH0 DUP4 ADD MSTORE PUSH2 0x30DD DUP2 PUSH2 0x30A4 JUMP JUMPDEST SWAP1 POP SWAP2 SWAP1 POP JUMP JUMPDEST PUSH0 DUP2 MLOAD SWAP1 POP SWAP2 SWAP1 POP JUMP JUMPDEST PUSH0 DUP3 DUP3 MSTORE PUSH1 0x20 DUP3 ADD SWAP1 POP SWAP3 SWAP2 POP POP JUMP JUMPDEST PUSH0 PUSH2 0x3108 DUP3 PUSH2 0x30E4 JUMP JUMPDEST PUSH2 0x3112 DUP2 DUP6 PUSH2 0x30EE JUMP JUMPDEST SWAP4 POP PUSH2 0x3122 DUP2 DUP6 PUSH1 0x20 DUP7 ADD PUSH2 0x2363 JUMP JUMPDEST PUSH2 0x312B DUP2 PUSH2 0x238B JUMP JUMPDEST DUP5 ADD SWAP2 POP POP SWAP3 SWAP2 POP POP JUMP JUMPDEST PUSH0 PUSH1 0x80 DUP3 ADD SWAP1 POP PUSH2 0x3149 PUSH0 DUP4 ADD DUP8 PUSH2 0x2481 JUMP JUMPDEST PUSH2 0x3156 PUSH1 0x20 DUP4 ADD DUP7 PUSH2 0x2481 JUMP JUMPDEST PUSH2 0x3163 PUSH1 0x40 DUP4 ADD DUP6 PUSH2 0x27C1 JUMP JUMPDEST DUP2 DUP2 SUB PUSH1 0x60 DUP4 ADD MSTORE PUSH2 0x3175 DUP2 DUP5 PUSH2 0x30FE JUMP JUMPDEST SWAP1 POP SWAP6 SWAP5 POP POP POP POP POP JUMP JUMPDEST PUSH0 DUP2 MLOAD SWAP1 POP PUSH2 0x318E DUP2 PUSH2 0x22C1 JUMP JUMPDEST SWAP3 SWAP2 POP POP JUMP JUMPDEST PUSH0 PUSH1 0x20 DUP3 DUP5 SUB SLT ISZERO PUSH2 0x31A9 JUMPI PUSH2 0x31A8 PUSH2 0x228E JUMP JUMPDEST JUMPDEST PUSH0 PUSH2 0x31B6 DUP5 DUP3 DUP6 ADD PUSH2 0x3180 JUMP JUMPDEST SWAP2 POP POP SWAP3 SWAP2 POP POP JUMP JUMPDEST PUSH0 PUSH1 0x40 DUP3 ADD SWAP1 POP PUSH2 0x31D2 PUSH0 DUP4 ADD DUP6 PUSH2 0x2481 JUMP JUMPDEST PUSH2 0x31DF PUSH1 0x20 DUP4 ADD DUP5 PUSH2 0x27C1 JUMP JUMPDEST SWAP4 SWAP3 POP POP POP JUMP JUMPDEST PUSH32 0x4E487B7100000000000000000000000000000000000000000000000000000000 PUSH0 MSTORE PUSH1 0x12 PUSH1 0x4 MSTORE PUSH1 0x24 PUSH0 REVERT INVALID LOG2 PUSH5 0x6970667358 0x22 SLT KECCAK256 0xD8 MSTORE8 0x29 SHR PUSH23 0xAA247CA87E71EF4CBE167E9148432CECBA61F6F66D7515 0xFB SHR 0x4E ADDRESS PUSH5 0x736F6C6343 STOP ADDMOD EQ STOP CALLER "
		},
		"gasEstimates": {
			"creation": {
				"codeDepositCost": "2574600",
				"executionCost": "infinite",
				"totalCost": "infinite"
			},
			"external": {
				"approve(address,uint256)": "infinite",
				"assets(uint256)": "infinite",
				"balanceOf(address)": "infinite",
				"freezeAsset(uint256)": "infinite",
				"getApproved(uint256)": "infinite",
				"isApprovedForAll(address,address)": "infinite",
				"name()": "infinite",
				"owner()": "2582",
				"ownerOf(uint256)": "infinite",
				"registerAsset(address,string,string,uint256,string)": "infinite",
				"renounceOwnership()": "infinite",
				"safeTransferFrom(address,address,uint256)": "infinite",
				"safeTransferFrom(address,address,uint256,bytes)": "infinite",
				"setApprovalForAll(address,bool)": "infinite",
				"setVerifier(address)": "infinite",
				"supportsInterface(bytes4)": "881",
				"symbol()": "infinite",
				"tokenURI(uint256)": "infinite",
				"transferFrom(address,address,uint256)": "infinite",
				"transferOwnership(address)": "infinite",
				"updateAppraisalValue(uint256,uint256)": "infinite",
				"verifyAsset(uint256)": "infinite"
			}
		},
		"methodIdentifiers": {
			"approve(address,uint256)": "095ea7b3",
			"assets(uint256)": "cf35bdd0",
			"balanceOf(address)": "70a08231",
			"freezeAsset(uint256)": "e5bb219b",
			"getApproved(uint256)": "081812fc",
			"isApprovedForAll(address,address)": "e985e9c5",
			"name()": "06fdde03",
			"owner()": "8da5cb5b",
			"ownerOf(uint256)": "6352211e",
			"registerAsset(address,string,string,uint256,string)": "6fb748d7",
			"renounceOwnership()": "715018a6",
			"safeTransferFrom(address,address,uint256)": "42842e0e",
			"safeTransferFrom(address,address,uint256,bytes)": "b88d4fde",
			"setApprovalForAll(address,bool)": "a22cb465",
			"setVerifier(address)": "5437988d",
			"supportsInterface(bytes4)": "01ffc9a7",
			"symbol()": "95d89b41",
			"tokenURI(uint256)": "c87b56dd",
			"transferFrom(address,address,uint256)": "23b872dd",
			"transferOwnership(address)": "f2fde38b",
			"updateAppraisalValue(uint256,uint256)": "1c38bd69",
			"verifyAsset(uint256)": "59fd285c"
		}
	},
	"abi": [
		{
			"inputs": [
				{
					"internalType": "address",
					"name": "initialVerifier",
					"type": "address"
				}
			],
			"stateMutability": "nonpayable",
			"type": "constructor"
		},
		{
			"inputs": [
				{
					"internalType": "address",
					"name": "sender",
					"type": "address"
				},
				{
					"internalType": "uint256",
					"name": "tokenId",
					"type": "uint256"
				},
				{
					"internalType": "address",
					"name": "owner",
					"type": "address"
				}
			],
			"name": "ERC721IncorrectOwner",
			"type": "error"
		},
		{
			"inputs": [
				{
					"internalType": "address",
					"name": "operator",
					"type": "address"
				},
				{
					"internalType": "uint256",
					"name": "tokenId",
					"type": "uint256"
				}
			],
			"name": "ERC721InsufficientApproval",
			"type": "error"
		},
		{
			"inputs": [
				{
					"internalType": "address",
					"name": "approver",
					"type": "address"
				}
			],
			"name": "ERC721InvalidApprover",
			"type": "error"
		},
		{
			"inputs": [
				{
					"internalType": "address",
					"name": "operator",
					"type": "address"
				}
			],
			"name": "ERC721InvalidOperator",
			"type": "error"
		},
		{
			"inputs": [
				{
					"internalType": "address",
					"name": "owner",
					"type": "address"
				}
			],
			"name": "ERC721InvalidOwner",
			"type": "error"
		},
		{
			"inputs": [
				{
					"internalType": "address",
					"name": "receiver",
					"type": "address"
				}
			],
			"name": "ERC721InvalidReceiver",
			"type": "error"
		},
		{
			"inputs": [
				{
					"internalType": "address",
					"name": "sender",
					"type": "address"
				}
			],
			"name": "ERC721InvalidSender",
			"type": "error"
		},
		{
			"inputs": [
				{
					"internalType": "uint256",
					"name": "tokenId",
					"type": "uint256"
				}
			],
			"name": "ERC721NonexistentToken",
			"type": "error"
		},
		{
			"inputs": [
				{
					"internalType": "address",
					"name": "owner",
					"type": "address"
				}
			],
			"name": "OwnableInvalidOwner",
			"type": "error"
		},
		{
			"inputs": [
				{
					"internalType": "address",
					"name": "account",
					"type": "address"
				}
			],
			"name": "OwnableUnauthorizedAccount",
			"type": "error"
		},
		{
			"anonymous": false,
			"inputs": [
				{
					"indexed": true,
					"internalType": "uint256",
					"name": "tokenId",
					"type": "uint256"
				},
				{
					"indexed": false,
					"internalType": "uint256",
					"name": "newAppraisalValue",
					"type": "uint256"
				}
			],
			"name": "AppraisalUpdated",
			"type": "event"
		},
		{
			"anonymous": false,
			"inputs": [
				{
					"indexed": true,
					"internalType": "address",
					"name": "owner",
					"type": "address"
				},
				{
					"indexed": true,
					"internalType": "address",
					"name": "approved",
					"type": "address"
				},
				{
					"indexed": true,
					"internalType": "uint256",
					"name": "tokenId",
					"type": "uint256"
				}
			],
			"name": "Approval",
			"type": "event"
		},
		{
			"anonymous": false,
			"inputs": [
				{
					"indexed": true,
					"internalType": "address",
					"name": "owner",
					"type": "address"
				},
				{
					"indexed": true,
					"internalType": "address",
					"name": "operator",
					"type": "address"
				},
				{
					"indexed": false,
					"internalType": "bool",
					"name": "approved",
					"type": "bool"
				}
			],
			"name": "ApprovalForAll",
			"type": "event"
		},
		{
			"anonymous": false,
			"inputs": [
				{
					"indexed": true,
					"internalType": "uint256",
					"name": "tokenId",
					"type": "uint256"
				}
			],
			"name": "AssetFrozen",
			"type": "event"
		},
		{
			"anonymous": false,
			"inputs": [
				{
					"indexed": true,
					"internalType": "uint256",
					"name": "tokenId",
					"type": "uint256"
				},
				{
					"indexed": true,
					"internalType": "address",
					"name": "owner",
					"type": "address"
				},
				{
					"indexed": false,
					"internalType": "string",
					"name": "propertyAddress",
					"type": "string"
				}
			],
			"name": "AssetRegistered",
			"type": "event"
		},
		{
			"anonymous": false,
			"inputs": [
				{
					"indexed": true,
					"internalType": "uint256",
					"name": "tokenId",
					"type": "uint256"
				}
			],
			"name": "AssetVerified",
			"type": "event"
		},
		{
			"anonymous": false,
			"inputs": [
				{
					"indexed": false,
					"internalType": "uint256",
					"name": "_fromTokenId",
					"type": "uint256"
				},
				{
					"indexed": false,
					"internalType": "uint256",
					"name": "_toTokenId",
					"type": "uint256"
				}
			],
			"name": "BatchMetadataUpdate",
			"type": "event"
		},
		{
			"anonymous": false,
			"inputs": [
				{
					"indexed": false,
					"internalType": "uint256",
					"name": "_tokenId",
					"type": "uint256"
				}
			],
			"name": "MetadataUpdate",
			"type": "event"
		},
		{
			"anonymous": false,
			"inputs": [
				{
					"indexed": true,
					"internalType": "address",
					"name": "previousOwner",
					"type": "address"
				},
				{
					"indexed": true,
					"internalType": "address",
					"name": "newOwner",
					"type": "address"
				}
			],
			"name": "OwnershipTransferred",
			"type": "event"
		},
		{
			"anonymous": false,
			"inputs": [
				{
					"indexed": true,
					"internalType": "address",
					"name": "from",
					"type": "address"
				},
				{
					"indexed": true,
					"internalType": "address",
					"name": "to",
					"type": "address"
				},
				{
					"indexed": true,
					"internalType": "uint256",
					"name": "tokenId",
					"type": "uint256"
				}
			],
			"name": "Transfer",
			"type": "event"
		},
		{
			"inputs": [
				{
					"internalType": "address",
					"name": "to",
					"type": "address"
				},
				{
					"internalType": "uint256",
					"name": "tokenId",
					"type": "uint256"
				}
			],
			"name": "approve",
			"outputs": [],
			"stateMutability": "nonpayable",
			"type": "function"
		},
		{
			"inputs": [
				{
					"internalType": "uint256",
					"name": "",
					"type": "uint256"
				}
			],
			"name": "assets",
			"outputs": [
				{
					"internalType": "string",
					"name": "propertyAddress",
					"type": "string"
				},
				{
					"internalType": "uint256",
					"name": "appraisalValue",
					"type": "uint256"
				},
				{
					"internalType": "string",
					"name": "legalDocsHash",
					"type": "string"
				},
				{
					"internalType": "enum RWAController.AssetStatus",
					"name": "status",
					"type": "uint8"
				},
				{
					"internalType": "uint256",
					"name": "lastUpdated",
					"type": "uint256"
				}
			],
			"stateMutability": "view",
			"type": "function"
		},
		{
			"inputs": [
				{
					"internalType": "address",
					"name": "owner",
					"type": "address"
				}
			],
			"name": "balanceOf",
			"outputs": [
				{
					"internalType": "uint256",
					"name": "",
					"type": "uint256"
				}
			],
			"stateMutability": "view",
			"type": "function"
		},
		{
			"inputs": [
				{
					"internalType": "uint256",
					"name": "_tokenId",
					"type": "uint256"
				}
			],
			"name": "freezeAsset",
			"outputs": [],
			"stateMutability": "nonpayable",
			"type": "function"
		},
		{
			"inputs": [
				{
					"internalType": "uint256",
					"name": "tokenId",
					"type": "uint256"
				}
			],
			"name": "getApproved",
			"outputs": [
				{
					"internalType": "address",
					"name": "",
					"type": "address"
				}
			],
			"stateMutability": "view",
			"type": "function"
		},
		{
			"inputs": [
				{
					"internalType": "address",
					"name": "owner",
					"type": "address"
				},
				{
					"internalType": "address",
					"name": "operator",
					"type": "address"
				}
			],
			"name": "isApprovedForAll",
			"outputs": [
				{
					"internalType": "bool",
					"name": "",
					"type": "bool"
				}
			],
			"stateMutability": "view",
			"type": "function"
		},
		{
			"inputs": [],
			"name": "name",
			"outputs": [
				{
					"internalType": "string",
					"name": "",
					"type": "string"
				}
			],
			"stateMutability": "view",
			"type": "function"
		},
		{
			"inputs": [],
			"name": "owner",
			"outputs": [
				{
					"internalType": "address",
					"name": "",
					"type": "address"
				}
			],
			"stateMutability": "view",
			"type": "function"
		},
		{
			"inputs": [
				{
					"internalType": "uint256",
					"name": "tokenId",
					"type": "uint256"
				}
			],
			"name": "ownerOf",
			"outputs": [
				{
					"internalType": "address",
					"name": "",
					"type": "address"
				}
			],
			"stateMutability": "view",
			"type": "function"
		},
		{
			"inputs": [
				{
					"internalType": "address",
					"name": "_owner",
					"type": "address"
				},
				{
					"internalType": "string",
					"name": "_tokenURI",
					"type": "string"
				},
				{
					"internalType": "string",
					"name": "_propertyAddress",
					"type": "string"
				},
				{
					"internalType": "uint256",
					"name": "_appraisalValue",
					"type": "uint256"
				},
				{
					"internalType": "string",
					"name": "_legalDocsHash",
					"type": "string"
				}
			],
			"name": "registerAsset",
			"outputs": [
				{
					"internalType": "uint256",
					"name": "",
					"type": "uint256"
				}
			],
			"stateMutability": "nonpayable",
			"type": "function"
		},
		{
			"inputs": [],
			"name": "renounceOwnership",
			"outputs": [],
			"stateMutability": "nonpayable",
			"type": "function"
		},
		{
			"inputs": [
				{
					"internalType": "address",
					"name": "from",
					"type": "address"
				},
				{
					"internalType": "address",
					"name": "to",
					"type": "address"
				},
				{
					"internalType": "uint256",
					"name": "tokenId",
					"type": "uint256"
				}
			],
			"name": "safeTransferFrom",
			"outputs": [],
			"stateMutability": "nonpayable",
			"type": "function"
		},
		{
			"inputs": [
				{
					"internalType": "address",
					"name": "from",
					"type": "address"
				},
				{
					"internalType": "address",
					"name": "to",
					"type": "address"
				},
				{
					"internalType": "uint256",
					"name": "tokenId",
					"type": "uint256"
				},
				{
					"internalType": "bytes",
					"name": "data",
					"type": "bytes"
				}
			],
			"name": "safeTransferFrom",
			"outputs": [],
			"stateMutability": "nonpayable",
			"type": "function"
		},
		{
			"inputs": [
				{
					"internalType": "address",
					"name": "operator",
					"type": "address"
				},
				{
					"internalType": "bool",
					"name": "approved",
					"type": "bool"
				}
			],
			"name": "setApprovalForAll",
			"outputs": [],
			"stateMutability": "nonpayable",
			"type": "function"
		},
		{
			"inputs": [
				{
					"internalType": "address",
					"name": "newVerifier",
					"type": "address"
				}
			],
			"name": "setVerifier",
			"outputs": [],
			"stateMutability": "nonpayable",
			"type": "function"
		},
		{
			"inputs": [
				{
					"internalType": "bytes4",
					"name": "interfaceId",
					"type": "bytes4"
				}
			],
			"name": "supportsInterface",
			"outputs": [
				{
					"internalType": "bool",
					"name": "",
					"type": "bool"
				}
			],
			"stateMutability": "view",
			"type": "function"
		},
		{
			"inputs": [],
			"name": "symbol",
			"outputs": [
				{
					"internalType": "string",
					"name": "",
					"type": "string"
				}
			],
			"stateMutability": "view",
			"type": "function"
		},
		{
			"inputs": [
				{
					"internalType": "uint256",
					"name": "tokenId",
					"type": "uint256"
				}
			],
			"name": "tokenURI",
			"outputs": [
				{
					"internalType": "string",
					"name": "",
					"type": "string"
				}
			],
			"stateMutability": "view",
			"type": "function"
		},
		{
			"inputs": [
				{
					"internalType": "address",
					"name": "from",
					"type": "address"
				},
				{
					"internalType": "address",
					"name": "to",
					"type": "address"
				},
				{
					"internalType": "uint256",
					"name": "tokenId",
					"type": "uint256"
				}
			],
			"name": "transferFrom",
			"outputs": [],
			"stateMutability": "nonpayable",
			"type": "function"
		},
		{
			"inputs": [
				{
					"internalType": "address",
					"name": "newOwner",
					"type": "address"
				}
			],
			"name": "transferOwnership",
			"outputs": [],
			"stateMutability": "nonpayable",
			"type": "function"
		},
		{
			"inputs": [
				{
					"internalType": "uint256",
					"name": "_tokenId",
					"type": "uint256"
				},
				{
					"internalType": "uint256",
					"name": "_newAppraisalValue",
					"type": "uint256"
				}
			],
			"name": "updateAppraisalValue",
			"outputs": [],
			"stateMutability": "nonpayable",
			"type": "function"
		},
		{
			"inputs": [
				{
					"internalType": "uint256",
					"name": "_tokenId",
					"type": "uint256"
				}
			],
			"name": "verifyAsset",
			"outputs": [],
			"stateMutability": "nonpayable",
			"type": "function"
		}
	]
}